:104000007090002011840300F12201005583030009
:10401000A70A0A010042000004180FAC2069000141
:104020000000000000000000000000000000000090
:1040300000000000309503000000000000000000B8
:104040000000000000000000FFFFFFFFFFFFFFFF78
:10405000FFFFFFFF00600500130000000060060086
:10406000FFFFFFFFFFFFFFFF8000000000000000D8
:104070000000000000000000000000000000000040
:104080000000000000000000F0FF0020F0FF002012
:104090007090002061FB0300E28403001087002081
:0C40A00000290020006006000000000065
:104200007090002011840300F12201005583030007
:1042100085E90200598303005D830300000000006C
:1042200000000000000000000000000023DA000091
:104230006183030077CF0000F7EA00000F1301004D
:1042400069830300698303006983030069830300B2
:10425000698303009BEA020099BA00000D7C030009
:10426000DD7B0300F37B030091120200751D020049
:10427000698303009F1D02006983030069830300B3
:104280006983030069830300698303003F1301000E
:1042900069830300AD42030069830300698303005F
:1042A0006983030013450300054503006983030088
:1042B000698303006983030069830300F35D0300DE
:1042C000B75D0300B55D030095580300F15D030081
:1042D000B95D0300BD5D0300BB5D030025780300ED
:1042E000255E03006983030069830300E56800001D
:1042F000698303001F3E030069830300631B010001
:1043000069830300698303006983030069830300F1
:1043100069830300698303006983030069830300E1
:1043200069830300698303006983030069830300D1
:1043300069830300103730B54A4A4A4B4B4C246816
:10434000650702D54FF0FF3030BDC50701D41C42D0
:1043500005D100EA04058D4206D11C4202D06FF05F
:10436000010030BD002030BD521EE7D16FF0020EBB
:10437000500970B50C463D4D6860E868403C400A05
:1043800070BD54F8040BA860161F03E00A104936EC
:104390001F46B108210820FFF7CAFF0100F4D0042E
:1043A00021296070BD0420286000F024F801000479
:1043B000D100212120BDE87040B9E770BD38B52992
:1043C0004CE168090C01F0010541F67131E162012F
:1043D00021264A1160606002202032120B32100741
:1043E00001D100F007F80121211820060DB10021AC
:1043F000E16232BD44400F99E72DE9F84304468954
:104400004616460020164F394822084812394812ED
:104410001430102102E02C19A944761B76B104F562
:104420000050400B4003051BAE4238BF35462A46BC
:1044300049462046FFF795A61003ECD00121092E2E
:10444000101BB8F1000F1CBF00213962BDE8F283D8
:10445000000080969800020001001C000340100438
:10446000130C1004000120034000000080B5002060
:1044700000F0C5F800204C49087000F033F9BDE8A1
:10448000014000F0CAB870B504460D4616463046E5
:1044900000F0BAF8002020703046A847BDE8704010
:1044A00000F0BBB8012241494148ECE701224149F3
:1044B0004148E8E7012241494148E4E780B501204D
:1044C00000F09AFA3F4800F02BFA3F49087001BD0E
:1044D00080B500F0A9FA012805D03B480078BDE876
:1044E000024000F008BA01BD30B5002400E0641CB1
:1044F000E3B2364D2D88AB420FD2354BE4B20C25DA
:1045000015FB04F52B441D78854201BF5D888D4263
:104510001D799542EBD1184630BD002030BD80B5E5
:1045200019B900F065F9002002BDB1F1004F02D2C7
:1045300000F069F9F7E7022002BDB1F5000F3CBFBA
:104540000902FFF7ECBF0220704770B504461D4614
:10455000FFF7CAFF06000ED0204600F0ADFD50B1B7
:104560002946B068FFF7DBFF28B9049870710598F9
:10457000B071002070BD022070BD1CB5049C019478
:1045800000931346012205E01CB5049C019400939E
:1045900013460022FFF7D9FF16BD80B50023009314
:1045A000FFF7F2FF02BD000094A00020A30B030060
:1045B0007CA00020AB2B020084A0002053580200F6
:1045C0008CA00020D8910020A3FE0020889A002013
:1045D000B491002080B5FFF787FF20B100218068EB
:1045E0000170002002BD022002BD0122F2E700227C
:1045F000F0E770470C480D4908600020704700B193
:10460000702070470020704780B500F013F8FF2835
:1046100001D1A32002BD002002BD002070477047D9
:1046200000BF03480078704762DA030030A500201D
:104630009CA2002080B500F04AFDFF2818BF002092
:1046400002BD00210170704700F0D2B8FFF775BFBE
:10465000401CC0B20A2190FBF1F10A2202FB1100BA
:10466000C0B2704710B584B0534C2478F4B18DF8C3
:1046700000008DF801008DF802108DF803100798E6
:104680000190002B14BF4FF480710021069808B1EF
:104690004FF4007011430843ADF8080068464749DD
:1046A000474A127801EB0211C96888471FBDF8B567
:1046B0000124414D2E780A2E12D0424F3C780FC86B
:1046C000DFF8F8C00CEB041C8CE80F002046FFF765
:1046D000BFFF3870701C287000243B48FFF7B4FF00
:1046E0002046F2BDF0B583B0374C2046FFF7A9FF56
:1046F000314D287820B3324E304F307807EB001020
:10470000027A4168007801F005F83D2818D00100D0
:1047100016D0002101910121009101233178090176
:104720007A5C0021FFF79EFF3078FFF791FF307031
:104730002878401E28702046BDE8FE40FFF784BF61
:10474000F7BD1CB50C460021019100910023002209
:10475000014606E01CB5144601900020009000239D
:104760000122E0B2FFF77EFF13BD7CB50E46144C6C
:10477000124D0021019100910123217809016A5C09
:1047800001463046FFF76EFF2078002E1FBF010163
:10479000695C012904290DD1074D2E78310009D01B
:1047A000FFF756FF2070701E28700748BDE876405E
:1047B000FFF74ABF73BD000053FF002008A9002087
:1047C00051FF002052FF002094A0002038B544780B
:1047D000456801F046F80C214C438A498A4B0A5936
:1047E000521B9A4238BF0D51BDE8324001F03FB82C
:1047F00010B5044601F070F8606004202070204677
:10480000BDE81040E2E738B504460D4601F064F813
:104810002D186560012020702046BDE83240D5E7A4
:1048200010B50446207860B1042806D001F054F891
:104830006168754B421A9A4201D2002010BD081AD5
:1048400010BD4FF0FF3010BD70B5044601F044F8C4
:10485000054601F006F80646606800226FF0004148
:1048600000F007F8451925603046BDE8704000F0BB
:10487000FEBFF8B505460E46144601F02DF8024677
:1048800000239CB1FF20207010E0087860B104285C
:1048900011D048685C4F111AB9420CD3801AB0424B
:1048A00002D2064604B123705B1C08352968002932
:1048B000EBD13046F2BD04B123700020F2BD70B5DB
:1048C000054601F009F80646504C10E0017869B140
:1048D000042904D041684C4A711A914206D204233B
:1048E00003702060696888470020206008352868C8
:1048F0000028EBD170BD10B5044600F0EDFF0C228E
:104900005443404A404B1159401A984207D214442C
:104910006068FFF7D4FF2046BDE8104094E710BD63
:1049200070B504463A4E3B4A70781378984204D3E7
:104930005FF0F60138A001F035F875780C20314AA7
:104940002B464343691C7170D11801264C600E72CE
:1049500000E0457054F8080B0028FAD10846FFF72C
:1049600073FF284670BD0000F8B50C244FF0FF31EE
:1049700060430091234D05F1080100220A54244BA5
:1049800093F8000068B301F001F920B940F22F114B
:1049900021A001F007F800F09FFF024600261C4B03
:1049A000DFF864C05978F0B2884211D260432958C8
:1049B000571A674515D305F10807385C891A80B97D
:1049C00079B10098814288BF01460091761CE9E7E1
:1049D000684601F0FDF810B9684600F0A0FF01201C
:1049E000F2BD01F0FFF80020F2BD0C214843054B59
:1049F0000122184402727047054908707047034845
:104A00000068704764F7002001000080A0F70020D4
:104A1000A1FE002028F703006576656E742D636F94
:104A20006E74726F6C2E6300024800787047014903
:104A30000870704744FF002082B0DFF8F409007866
:104A40008DF80300DFF8900A0088ADF80600DFF863
:104A50008C0A0088ADF80400DFF8840A00788DF82D
:104A600002000020ADF800000120DFF8781A08707D
:104A7000DFF8740A9DF803100170BDF8061041803C
:104A8000BDF8041081809DF802108171DFF85C1A76
:104A90009DF8012001EBC20181609DF800100173B7
:104AA0000121417302B07047DFF8380A007870477F
:104AB000DFF8341A01EB0010407B00F00100704772
:104AC000412818BF422801D10120704700207047BB
:104AD000432818BF442801D10120704700207047A7
:104AE000F8B5044615461E46079B069A00F077FA6D
:104AF00060B1042100F07FFC070007D02046FFF7DB
:104B000083FD324629462046B8478FE0F1BD2DE9A6
:104B1000F04383B004460D46160098461EBF0A9F18
:104B2000002F5FEA08001ED0387800074CBF4022F3
:104B300080220C9B7188307900F051FA98B10821DD
:104B400000F059FC814670B13079FFF75DFD0B989C
:104B5000019000974346324629462046C847BDE8A3
:104B6000F743FFF75ABDBDE8F783F8B500F039F811
:104B7000D0B121000BD1022100F03DFC040013D084
:104B80002846FFF741FD31462846A0470BE010219B
:104B900000F031FC070007D02846FFF735FD22461C
:104BA00031462846B84741E0F1BDF8B500F019F8A4
:104BB00008B98620F2BD00278CB9202100F01BFC2B
:104BC00004000CD02846FFF71FFD09980090089BB1
:104BD000079A31462846A0470746FFF71EFD38468C
:104BE000F2BD054616461A46069C2346F7E1F8B57F
:104BF0000446A5682078FFF707FD002612E0286824
:104C0000F6B2142111FB06F147183988207800F01C
:104C1000F6FF0121384600F0EEFB01001CBF2078B2
:104C20008847761C2979F0B28842E8D3BDE8F14084
:104C3000FFF7F3BC70B50024DFF8AC58DFF8A468C8
:104C400008E0FFF735FF20B1E4B205EB0410FFF7F1
:104C5000CEFF641C3178E0B28842F2D370BD10B54B
:104C600086B0002401948DF80800ADF80A108DF884
:104C70000C30ADF80E200898ADF810000094002319
:104C8000002201A902A800F094F8019806B010BD16
:104C90002DE9F04782460E461746984697F802904F
:104CA000089C20000CBFFD7825464846FFF708FF0A
:104CB00030B16A1ED2B23146504601F03EFB1FE0D1
:104CC0004846FFF705FF30B1AA1E92B23146504662
:104CD00001F04BFB14E0B8F1000F06D1200004D026
:104CE000F878844238BF89200BD3F9781EB9504632
:104CF00001F01EFC04E00A463146504601F01CFC5F
:104D00000020BDE8F08710B5002301E0001D5B1C0A
:104D10009CB28C4204D204889442F7D1408810BDE2
:104D2000002010BDDFF8C817401A0C2190FBF1F0ED
:104D300082B20021DFF8BC07E5E70288B2F57C4FBC
:104D4000A8BF00F002B80846ECE7DFF8AC17401A3D
:104D5000142190FBF1F082B20021DFF8A007D2E726
:104D600010B50C460188638899420DD1027B2379E6
:104D70001A4209D0B1F57C4F04DBFFF7E6FF218929
:104D8000884201D1012010BD002010BD10B514468D
:104D90000A88E3889A420AD10288B2F57C4F04DA85
:104DA000FFF7CBFF2189884201D1012010BD0020EF
:104DB00010BD2DE9FA4F83B0044693460025002626
:104DC00003E0C0884519ADB2761CDFF818170978E2
:104DD000F0B2884280F0B880F6B23101DFF80807FF
:104DE0000844DFF80427515C227891428068E8D1BA
:104DF00000903046FFF75CFE0028E5D04FF0000A37
:104E000005E0B8F80A004519ADB20AF1010A0099A7
:104E100009795FFA8AF08842D6D2009800685FFA72
:104E20008AFA142111FB0AF100EB010821464046E1
:104E3000FFF796FF0028E4D04FF0000908E038792A
:104E40003021084202D1F8782D18ADB209F10109DC
:104E5000B8F808101FFA89F08842D6D2D8F80400B2
:104E60001FFA89F90C2101FB09F14718224639463E
:104E70004046FFF78BFF0028E1D0039800B10760A0
:104E80003879800610D5DFF86806002106E002793F
:104E9000920602D5C278891889B20C30B842F6D38E
:104EA000DFF85C06461802E0DFF8580646190E9D4A
:104EB00028001DD0DA4639464046FFF73EFF02463D
:104EC0003B886188207800F096FE20B33879C006D0
:104ED00030D5002D394640461FD0FFF72EFF034640
:104EE000CDF800B03A466188207800F099FE2CE0B9
:104EF000BBF1000F08BF002027D0B2465E463946FE
:104F00004046FFF71AFF3B8802466188207800F090
:104F100070FE0028DAD17E2017E0FFF70EFFF97847
:104F20000191CDF800B003463A466188207800F040
:104F300075FE0AE0BDF8100000902B463A46514637
:104F40003046FFF7A5FE00E0862005B0BDE8F08FF3
:104F50002DE9F8450446884616469A46002503E0A2
:104F6000397B090616D46D1C2179E8B288421ED21D
:104F70002068EDB2142111FB05F14718388840452F
:104F8000F1D1310006D0802EEAD0402EEBD1397B12
:104F90004906E8D5B0F57C4F07DB3846FFF7D5FE6C
:104FA000504518BF5FEA0A00DDD1384600E0002016
:104FB000BDE8F28580B5134607E080B51346402270
:104FC00004E080B51346802200E0002200F007F8DC
:104FD00000B1012002BD80B500234022F6E770B584
:104FE0000C4615461E4600F072F8FF2801D100203D
:104FF00070BD33462A462146DFF8EC4404EB00102E
:105000008068BDE87040A3E770B50C4615461E46A3
:1050100000F05FF828B933462A462146DFF8C80475
:10502000EEE7002070BD1346402201E00022FAE7BF
:105030002DE9F84F8046894692469B460026FFF7A9
:10504000CEFF08B9FF201AE00027DFF89C44DFF804
:10505000945400E07F1C2978F8B288420ED2FFB247
:105060003801205C404509D05B4652464946FFF76F
:10507000CBFF0028EED0761CF6B2EBE73046BDE859
:10508000F28F30B50022DFF8603400E0521CDFF808
:1050900054542D78D4B2AC420CD2D2B214011D5D5E
:1050A0008542F3D10D0003D01C44647BE407EDD5A9
:1050B000104630BDFF2030BD80B50021FFF7E1FF75
:1050C000FF2801D1002002BDBDE80240F0E401212B
:1050D000D7E70021D5E7DFF810140001085C70471E
:1050E00038B50C46FFF7F3FF01460020FF291FBF2C
:1050F000DFF8F42302EB01118968002916D00022A1
:1051000003E01B0648BF2846521C0D79D3B2AB42C0
:105110000BD20B68D2B2142515FB02F52B441B7B76
:10512000451C002CEDD05B06ECE7C0B232BDF8B5F3
:105130000C461546FFF7CBFF01460022FF291ED083
:10514000002301E0521C5B1CDFF89C0300EB011004
:1051500080680779DEB2BE4211D20068DBB2142645
:1051600016FB03F63044067B2F0002D0760602D4ED
:10517000E9E73606E7D5D6B2A642E3D1F2BD002074
:10518000F2BD002109E010B50446012100F005F848
:105190002046BDE8104001F026BA2DE9F34F87B054
:1051A00001F0EBFA0690CF480078059000249DF8B6
:1051B0001C000190DFF8308300E0641CE4B2059924
:1051C0008C427BDA0199FF2907D09DF81C00FFF77C
:1051D0007EFF0446FF2C06D177E008EB0410007B2D
:1051E00006998842E9D14FF0000A4FEA041901E01C
:1051F0000AF1010A08EB0900806802795FFA8AF176
:10520000914257D200685FFA8AFA142111FB0AF121
:1052100045182889B0F5967FC8BF01F089FB0026A4
:1052200013E00120009000235A46002102A8FFF756
:10523000C0FD9DF8200038B13B46BDF80A2018F8A3
:105240000910584600F087F8761C2989B0B28842C8
:10525000CED26868B6B20C21714347183879C006BF
:10526000F2D418F809008DF808002888ADF80A0073
:10527000387940064CBF802040208DF80C003888DB
:10528000ADF80E0039462846FFF757FDADF810007F
:10529000F8783979490706D5D7F808B00328C0DB74
:1052A000DBF800B0BDE70328B4BF07F1080BD7F85F
:1052B00008B0B6E70198FF283FF47FAF9DF82000C3
:1052C00018B99DF81C0000F003F809B0BDE8F08F94
:1052D0003EB5044601F051FA05460120FFF7AAF950
:1052E000012C03D0FF2C08BFA8422BD101237F2221
:1052F000242100F028F83020009001AB002200F0BB
:1053000025F802237F22252100F01DF8312000908E
:1053100001AB012200F01AF808237F22262100F0B9
:1053200012F8F020009001AB102200F00FF80123DA
:105330007F22272100F007F82020009001AB1122E6
:1053400000F004F837BD01A801F0F9BB4FF4A061EB
:10535000012001F0BABC30B583B005461C46207967
:10536000800744D50023CDE9003305B96D460129F6
:1053700008BFB2F5A06F3AD1208858B900F038F8CC
:1053800040B92079400605D401232A467F212420F4
:1053900001F003FC208801280BD100F029F840B966
:1053A0002079400605D402232A467F21252001F0DA
:1053B000F4FB208810280BD100F01AF840B92079AE
:1053C000400605D408232A467F21262001F0E5FB6C
:1053D000208811280BD100F00BF840B92079400645
:1053E00005D401232A467F21272001F0D6FB37BDB3
:1053F0002046FFF797BC30B501220023047B0C4206
:1054000005D1002030BD144218BF5B1C5200D5B23C
:105410008D42F8D30069DBB250F8230030BD3A4921
:10542000401A8003020C00213848FFF76CBC0000D2
:1054300022F703002DE9FE4F0C4600254FF0010A2C
:105440000028607D07D0010008BF022707D001288F
:1054500004D1012703E008B9082700E00427A84683
:10546000DDF83490DDF83CB0274800EB8806308842
:10547000BDF80410884227D1F078384224D0B078A3
:105480009DF8381088421FD3E07BF178C90607D514
:10549000D0B13046FFF7C3FF218A814201D013E02B
:1054A00090B9AB4503D0BDF83000854202DB4FF028
:1054B000000A0EE0B07802994855B9F80000401C87
:1054C000A9F800006D1CADB208F10108B8F10A0F8F
:1054D000CADB5046BDE8FE8F6ED903005EDA0300DA
:1054E00023F7030043FF00209CA20020A08A0300B2
:1054F000CC870300AC8A0300C4890300A88A030098
:105500002C9F0020ACA20020A0870300C8870300C6
:10551000DFF804030178022904BF092202707047F2
:10552000DFF8F80201F04EBE0A2001F02AB910B5EA
:10553000044602F0BDF908B902F0BCF90B2120FACB
:1055400001F2D20705D4491CCBB21B2BF7DB00209C
:1055500010BDC9B2A142FAD1012010BD2DE9F04120
:10556000804688B00D4600F04DF801F012F9288809
:1055700068BB0FF2EC200088ADF81C0002F09DF92A
:10558000060008BF02203AD001F001F9044601F0FC
:10559000FEF8074601F0FBF848214F43069400232C
:1055A000A04A059304960393484302931744B7F81F
:1055B000D630104400F1DA01019300914FF6FF73E9
:1055C00007AA4CF60101FF2002F07AF92880404634
:1055D000FFF7ADFF944D297818B1080018BF481E99
:1055E00000D10520287001F0D5F84046FFF79FFF55
:1055F00020B12878401E8041C00F00E0012008B093
:10560000BDE8F0810A2001F0BDB810B50C46208835
:1056100030B901F0BCF80146002002F086FA208083
:10562000012010BD38B500F043F801F0B2F8E2B245
:10563000E9B2082028E010B50C46FFF7E3FF218807
:1056400021B90146002002F089FA2080012010BD16
:1056500070B500F02DF801F09CF86F4E30780428FA
:1056600004D1707803F078FC002070703078E2B2DA
:10567000E9B203F0D3FBCAE038B500F019F801F045
:1056800088F8E2B2E9B2062003F0C8FBBDE8314079
:1056900001F080B838B500F00BF801F07AF8E2B20A
:1056A000E9B2002003F0BAFB00205B494860EDE757
:1056B00004460D460A2001F065B880B5FFF7A2FF49
:1056C00001F067F802F0E8F8BDE8014001F062B8C7
:1056D00038B504461546FFF795FF01F05AF801F07A
:1056E00055F84D48426829462046002A01D0904787
:1056F00001E004F0B3F901F04DF8C7E738B5FFF762
:10570000D7FF01F046F8E2B2E9B20320BCE701207E
:1057100070470000FEB505460E46144604F046FAF2
:1057200008B13D20FEBD16F0784F05D0F00E1C38B4
:10573000042801D33520FEBD374F002078603D702E
:10574000042D05D1781C03F0DDFD022003F004FCDC
:10575000FFF7EAFE012D1CBF062D042D01D104F038
:10576000E3FB324A2E480A2D3ED8DFE805F0150843
:105770002933080F0631212B1C002D4B00E02D4B47
:105780000121019302910090032327E02A4A214638
:10579000304604F0CFF925E0284B294A214630460F
:1057A00004F0AEF91EE0274A00F020F8264A15E082
:1057B000264A01210192029100900323244A0DE020
:1057C0000220387000222349002005F04CFA09E03D
:1057D0007020FEBD204A00F009F8204A21463046DC
:1057E00004F0C1F9C0B2FEBD0120FEBD002101924E
:1057F000029100900323704780B50748017809297A
:1058000008BF05F0BBFD04F0E8FA002002BDBDE8CA
:10581000704000F0BFBF000000F90020EAF800204F
:10582000ADCA0100A8F90020EF9A00203756000009
:105830007956000051560000111E030095560000D5
:10584000D1560000BB5600005D55000025560000F3
:105850000B56000011550000FD5600000F570000C8
:10586000FFFFEFF31180302181F31188704780F33F
:10587000118870477FB500F011F818B900F015F8DD
:1058800005F0AEFD04B070BD7FB500F007F818B9A3
:1058900000F00BF805F0BBFD04B070BD04460846EF
:1058A00015461E4602A905F0AFBE08990998334671
:1058B0000091029901902A462046704780B500F079
:1058C0000DF880B202BD80B500F008F8FA21B0FBF7
:1058D000F1F080B202BD000000BF0000E0B505F0AD
:1058E00075FE6A4605F0C1FE18B14C2128A000F0F3
:1058F00059F8DDE9000103B000BD000080B506F0F5
:1059000034F805F03DFD20B15FF0570120A000F014
:1059100049F8002002BD0120104908707047FEB50B
:1059200004462168002501B91CE000F00CF808B11C
:1059300000F002F8012019E001950095216800238C
:105940003A46301D96E7054E3570054F0023019508
:1059500000933A46301D97E70000000098F80020B9
:105960001759000000F03EF90020FEBD06F0D4F902
:10597000307840B92146301D05F0B8FD20688525F6
:1059800005F057FE01E00020307020602846FEBD83
:1059900073797374656D2D74696D65722E63000083
:1059A00042DE704738B504460D4600F0C1FF06F0F0
:1059B000CDF92946204606F0CEF92B462246694904
:1059C000012006F02AFA29462046BDE83440E7E7E0
:1059D0002DE9F0474FF42068634D2E1D63480168A0
:1059E0007165016AB16562490A68F26549683166A4
:1059F000416A7166816AB166C16AF166016B31679D
:105A0000806B706796F8340040074CBFF46BB46B42
:105A1000274606F033FA014631650022F26405F1AB
:105A20009003DFF850C1DFF850E1544A844224BFAC
:105A3000A2F1200AA24518D3A0693064E469746415
:105A4000746DC4F30804062C13D1704511D360455E
:105A50000FD200884DF64264A0420AD130685860E7
:105A60007068986040F2017803E00027376477643B
:105A700007464348814202D2014600E0091D08461C
:105A8000904203D20C68B4F1CD3FF7D03D49081ADB
:105A9000B0640020002105EB8004E167401C06286B
:105AA000F9D3002003E0C0B205EB8004E167974220
:105AB00023D252F8041D7145F9D36145F7D2CC07C2
:105AC000F5D5002405EB8409D9F87C90894502D0EE
:105AD000641C062CF6D3062CE9D1002814BF401E06
:105AE0000520E0E7B16F002405EB8402D2F8807056
:105AF000D767641C052CF7D319600146481EC9B24C
:105B00000029EFD1706DC0F30800032810D00428DD
:105B100011D0052812D0062813D00C2817D03B2806
:105B200018D119480068800719D540F2025816E0CC
:105B300040F6012813E040F6022810E040F6032862
:105B40000DE0B8F5206F0AD140F6042807E040F6D2
:105B5000052804E018B14D2838BF40F60728404614
:105B6000BDE8F087689603000000002004ED00E027
:105B700000E300E0E28403006C4400007090002029
:105B80009C000020709000201880014AEFF31080E4
:105B9000C00706D4EFF3118030288041C043C00F06
:105BA00070470120704770477047704770477047D3
:105BB00070477047704770477047704770470020C4
:105BC000704770470020704770477047002070474B
:105BD00000207047704770477047704770477047A4
:105BE00070477047002080F311887047704701208C
:105BF0007047012070470120704770477047704719
:105C00000020704700207047002070470020704738
:105C10000020704700207047002070470120704727
:105C20000120704700207047002070470020704717
:105C30000020704700207047B52070470020704753
:105C400070477047842070477047704770477047AF
:105C500070477047704770470120704700207047B9
:105C6000034800680078012808BF02207047000040
:105C700030A50020704700207047012181814FF638
:105C8000FE71C18101210161002101700120704775
:105C90007047002070470020704700207047704711
:105CA000B5207047002070470020704770470020E3
:105CB00070477047704770470020704770477047C3
:105CC00070470020704770477047704770477047B3
:105CD00080B5FFF7FCF9FF2804D018B9DFF8880772
:105CE000007802BD002002BDF0B504460026002762
:105CF000059D092D02D300200021F0BDB4460FE020
:105D00003F0247EA16675FFA8CFCA5EB0C002044C3
:105D100010F8010C002110EB06264F410CF1010C8C
:105D20005FFA8CF0A842EBD39F4206D828BF964278
:105D300003D2901B63EB0701F0BDB01A67EB0301C0
:105D4000F0BD10B50168DFF824270B8813804B885D
:105D50005380497911710168097951714FF4AA5141
:105D6000D18001688979890644BF4FF4AB51D18055
:105D7000DFF8FC160A7883693BB9C088DFF8F4368F
:105D8000188002F0FD00087010BD42F002020A7097
:105D9000DFF8E44616228169204600F0CDFB0020A2
:105DA000207010BD80B50020FEF729FCFF20FFF712
:105DB000E8F9FEF732FCFEF777FE01220146DFF834
:105DC000A80606F065F8DFF8A436DFF8B026522101
:105DD000DFF8AC0606F048F9FEF770FB06F0B2F902
:105DE00006F091FB07F0C6F807F0C6F8BDE80140E1
:105DF000FEF720BF704780B501F0AFFF20B907F074
:105E00000FFA08B906F00EFEFFF749FFBDE80140A2
:105E1000FFF755BFF8B5044620684079FFF757F9FA
:105E20002268DFF86456FF280BD100F05CF8DFF839
:105E30005C16022007F0A3FA20684279DFF85016BA
:105E400040E0DFF8501601EB0010DFF84C66017BF4
:105E5000237F994208D000F046F8DFF8403600F082
:105E600048F8227FA0A12DE040881188DFF8307625
:105E700088420FD04FF6FF73994202D1B0F5004F20
:105E800008DB00F030F8DFF81C3600F032F820684C
:105E9000028816E02079022818BF032817D111893B
:105EA0005079FFF7B9FE90B9E37C20684288294613
:105EB000022007F064FADFF8F03500F01AF82068E5
:105EC00002893946022007F054FA0020F2BDA07B77
:105ED0000028204603D0BDE8F24007F061BABDE8D3
:105EE000F24007F095BAE37C52882946022007F079
:105EF00046BA206842793146022007F040BA38B5E8
:105F000014461A4623785B074CBF052303239A42A5
:105F10002ED3069D286029710498E880AC60AA8180
:105F2000207800F00100A8732078800800F00100BC
:105F3000E8732078C00800F001006875012028751A
:105F4000E87B30B10121204607F041FD297D891C05
:105F500029752882287D411C2975205CA874481C5D
:105F60002875C9B2615CE974A989C0B2814201D2C5
:105F7000002032BD0598A86100F0FFFB28770120C2
:105F800032BD2DE9FE430F460025DFF82065DFF81E
:105F9000201591EC080B86EC080BDFF8E8840B9CCD
:105FA000029601940A9900913946FFF7A8FF00284C
:105FB00073D0C8F80060B07CDFF8F8140870304681
:105FC000FFF7BFFE304600F00FFB98BBA4BB042FC9
:105FD00018BF052F03D0022F18BF032F01D10122B4
:105FE00000E000223068F188019141880091038827
:105FF0000121F07C00F04EF908B330688179890600
:106000001DD44288DFF8B014022007F0B2F9DFF89F
:10601000AC54012028700121304600F039F938B124
:106020000346DFF89C24DFF89C14022007F0A1F956
:1060300000202870012530E0207D80072DD53068B4
:106040004079FF2825D10027DFF82044FEF72CFDFA
:10605000F9B2814221D2F8B2FFF73DF88146F8B299
:10606000FEF726FD98B1328A306841884846FEF72F
:10607000A1FF60B13046FFF764FE306880F80590FC
:1060800084F804903046FFF7C5FE00B101257F1C5F
:10609000DCE73046FFF7BEFE054607F013FC16218D
:1060A000DFF8D40307F0BAFC0020C8F80000284647
:1060B000BDE8FE83DFF810040178491C017001F08F
:1060C0007F00704778B1DFF804140978012903D103
:1060D000018841F0400105E0022904D101884FF612
:1060E000BF721140018070472564000078B1DFF86D
:1060F000E0130A78012A04D1DFF8D82312780A7055
:1061000001E0022A03D1017841F0100101707047CB
:106110002DE9FE43DFF858432178CA0706D5DFF89A
:10612000B813022007F025F9002068E0DFF85423B7
:106130001268CE4D72B1126893799B0603D5EB8835
:1061400043F02003EB809279520603D5EA8842F0AF
:106150004002EA80CA4E32785207DFF8582312789C
:106160004CBFF2707270C54F89070CD54FF04908CB
:1061700032463988C048FFF75FFD8146207800F03D
:10618000FD0020701AE0BB490C884FF6FC718C4270
:106190000ADA4FF05508019000963B882A462146BE
:1061A000002007F073FD08E04FF0420800903346EE
:1061B0003A882946204607F057FD8146A87980068F
:1061C0004CBFC64C45A407F0C7FF0294CDF804901D
:1061D000CDF80080C24B0246C249022007F0C9F840
:1061E000C149022007F0CBF801233A88314602204A
:1061F00007F0CBFF9BA1022007F0BBF84846BDE8A3
:10620000FE83002084E70A4601469E48006801E0BC
:106210000021F8E770B504460E46154620790100C6
:1062200018BF01280BD1A0680078C00601D5300046
:1062300005D0A07B002804BFE07C0B2801D1002002
:1062400070BD00208D490880607D00280CBF0820AB
:106250000020E17B11B907F04AFB06E040F00400A2
:1062600007F045FB208A07F051FBA07C07F03FFBBD
:106270000B2007F03CFBE07C07F039FB304607F0D1
:1062800036FB2046FFF75DFD2846BDE870403FE73E
:106290000022BFE770B504461D4694480078874B3E
:1062A000012801D01E7816B10020187070BD82F050
:1062B00001020A4301D1002070BD00281EBF0498CE
:1062C0004FF65742904206D023460A4601462846DA
:1062D000FFF796FC00B1012070BD00000000000037
:1062E00038B54FF6FD735224D288950648BF49242D
:1062F000550544BF083CE4B2150544BF083CE4B270
:10630000120444BFA41EE4B2032810D8DFE800F052
:106310000204080D0B460AE0C8B207F0DDFF02E0F8
:10632000C8B208F003FA034601E0641EE4B218465E
:10633000FFF780FC201AC0B232BDB0B504460D0094
:1063400017460EBF00202878FF2801D12070B0BD6D
:10635000284607F046FB874288BF07463A46691C35
:10636000601C00F0E9F82770B0BDF8B504460D00D8
:10637000164603D1002060702070F1BD2878FF28F8
:1063800002BF6878FF2820700DD0284607F02EFB4A
:106390000746BE42B8BF37463A46A91CA01C00F0CB
:1063A000CBF8277038126070F1BDF0B5541E002B89
:1063B00037D0052A48DA0025002600230CE0571EB6
:1063C000FF1AFF000CFA07FC4CEA050511F80EC095
:1063D0000CFA07F73E435B1CDFB2974209D2DBB2EF
:1063E000A4EB030E00280CBF4FF0000C10F80EC0F9
:1063F000E5E7042A0FDAD000401E0121D2009140C7
:10640000494245FA00F2D20748BF0D4346FA00F26E
:10641000D00748BF0E43AE420FDBB54214DA10E09E
:106420005B1CDDB295420FD2DBB2E51A00280CBF2F
:106430000026465D4D5DB54201DA0120F0BDAE4259
:10644000EEDA4FF0FF30F0BD0020F0BD0021284A09
:1064500001E0891CC9B2535C8342FAD350184078DA
:10646000704700005D00000048FF0020D0A400201D
:106470004DFF002076F90020B8A500208AF9002001
:10648000DCA40020B4A50020EC8B03000C8C0300DE
:10649000288C03009CA20020308C0300588C030041
:1064A000688C0300608C0300708C030094A50020AE
:1064B0003C8D0300B39A0020788C030049FF002034
:1064C000C88C0300A08C0300B49A00204AFF00206F
:1064D0004BFF00204CFF0020D08C03001C8D0300DC
:1064E000148D0300F88C03002C8D0300B29A002059
:1064F0005C8D0300283808288041C00F704710F0D9
:10650000E00011D0802806D0A02806D0C02806D0F0
:10651000E02806D007E01C2070471D2070471E2091
:1065200070471F207047FF20704700F01F00704722
:10653000002205F0B1BC704781423ABF531898421F
:1065400008F09EBA8018990707D0521E24BF13F88E
:10655000011D00F8011DF6D8704781071CD1103AC3
:1065600007D330B433E93210103A20E93210F9D2AF
:1065700030BC1032121F24BF53F8041D40F8041D14
:10658000F8D838BF121D521E24BF13F8011D00F8A1
:10659000011DF8D8704700BF083A07D333E902104D
:1065A000083A40F804CD40F8041DF7D20832EAE773
:1065B00080B508F0A1FABDE80140FFF7F3BB80B554
:1065C000FFF73EFBFFF716FC0AF0A2FEBDE8014014
:1065D00006F0B2BC80B5FFF734FB0AF0AEFEBDE8B2
:1065E00001400AF0D6BE70470AF012BF0BF046B861
:1065F0000020704738B504460D46FFF764FB294676
:106600002046BDE834400BF0C8B9FFF744BBFFF7A4
:106610004EBB70472DE9F0427D4E002030707D4C1E
:1066200020683821382507F0F9F933787A49087855
:1066300022686B43D05430782168002268430844B4
:106640004270307821686843084482700BF024FA65
:10665000327821686A430A4410720BF01DFA3278CE
:1066600021686A430A445072317820686B4A694352
:10667000014410786A4AC8703378216817686B4300
:10668000C818476167490A7802763078D4F800C0A4
:10669000654A074615FB07F312680CEB0301CA6154
:1066A000624AD2F800902C22574309EB07020CF102
:1066B0003407FA500BF002FA3078216815FB00F528
:1066C00001F1340251594A680968BDE8F0420BF003
:1066D0007CBC80B592B06A460021002004F099FA93
:1066E00008B1012018E05249524A0A910B925249CE
:1066F000524A0C910D9210915148524A52490990B8
:10670000524B0F9211910E936A460021002004F023
:10671000A5F900B10120C0B213B000BD80B50020C2
:1067200000F01AF828B1002000F005F808B10020A8
:1067300002BDFF2002BD364A364813780168382072
:106740004343C818807802281CBF1128432801D170
:1067500001207047002070472D4A2E4813780168A9
:1067600038204343C818407801281CBF022803285A
:1067700001D10120704700207047002070470020A1
:106780007047704700207047012070477047002015
:106790007047704770470020704780B500F020F8C0
:1067A00020B10020FFF7D8FF00B1012002BD80B565
:1067B00000F016F808B1002002BDFF2002BD10B5A0
:1067C000044600F00DF848B100F019F840780128AF
:1067D00018BF022802D10CB9012010BD002010BD45
:1067E0000020A8E780B5FFF7FBFF30B100F007F805
:1067F0004178032901DA002002BDFF2002BD044ACE
:1068000004481378016838204343C81870470000D3
:10681000D8FF0020C4960020D99A0020DA9A0020E0
:10682000CC960020D19A0020D0960020C896002057
:1068300083C90100B75B000069CA0100BDB2020054
:106840009DC80100DB6B0100E9A4010061CC0100DF
:106850000021002004F0D9BA7047002818BF0BF0BF
:106860003ABC704703F00EB902F0D6BF33B585B01D
:1068700005468DF8042006F02DFC0446284606F057
:1068800039FC7CB10028BDF818000FD106F03EFDA0
:10689000FF288DF8000004BF00218DF80010CDF80E
:1068A00008D016E0A8B106A8029012E006F02EFD6E
:1068B000FF288DF8000003AA04BF00218DF8001006
:1068C0009DF80000BDF8181002928DF80C00ADF88C
:1068D0000E10DDE901010A460146284606F052FB8A
:1068E00007B030BD0BF004BD10B584B068461A493E
:1068F0001CC91CC001208DF800000D208DF8060079
:1069000003208DF80700082124200BF029FE69469A
:1069100012480CF0D8F84FF40060114908600221C9
:10692000104A1160104908600220104908601FBD1C
:106930000A480CF0B7B8A52803D1002107480CF08D
:106940009FB870470A48006800F001007047094886
:1069500000680028FBD1704764A303000080014A4F
:1069600084E200E018A0014A04E100E01C90014A22
:106970000480014A2480014A2DE9F04F89B00CF0CF
:10698000D4F808B1C620CBE0DFF8B042DFF8B0623F
:10699000316820680DF073FC05002CD03268516816
:1069A000106892691268904704A8316889698968FB
:1069B0008847022031688969C9688847002506E050
:1069C000006802FB0500096988476D1CEDB230685C
:1069D0008169059A4368B3FBF2F39D42F0D300202E
:1069E000C968884730688069406880473168206896
:1069F0000DF045FC05460026DFF84892DFF8488296
:106A0000002D64D1DFF84402805DF0B1DFF8400270
:106A100050F8267001AB6A46394620680DF033FE07
:106A2000404507D0002852D1009801284FD0394660
:106A300000F07AF8DFF81C0250F8260002683946A8
:106A400020680DF064FD054641E00027DFF80002F4
:106A500050F826A0DFF80002805D8DF8080005E000
:106A6000019819F8061088420FD17F1C9DF8080084
:106A7000874216DA00F05BF8404506D00028F4D1D2
:106A800000980028ECD000F04EF819F80630DFF836
:106A9000C40150F82620594620680DF0B2FC0500CC
:106AA000E3D0DFF8B801805D88B19DF80870DFF8A9
:106AB000A00150F826A000E07F1C7F2F07D200F035
:106AC00036F8404503D000F02EF80500F4D0761CCF
:106AD000332E95DBDFF888011DB9012101700025F7
:106AE00015E000210170002DF9D0DFF878012D1A92
:106AF00008D06D1E08D0AD1E08D02D1F0CBFC125BB
:106B0000C52504E0C22502E0C32500E0C4252068B5
:106B1000007C20B1D321DFF85001FEF743FF284667
:106B200009B0BDE8F08F594620680DF0F1BD07EBC4
:106B30000A0B01AB6A46594620680DF0A4BD70B53A
:106B40001546332920DADFF81821127882B1DFF8F0
:106B5000EC201468DFF8F860DFF8F020525C42B1F6
:106B6000024656F8211020460DF016FD00B145E012
:106B700070BD7F2D08BF0025024656F8210041193F
:106B800020460DF07EFCF1E7FF2903D9BDE87040F7
:106B90000DF06DBE40F2011134E070B515461A4695
:106BA000332821DADFF8B8301B7883B1DFF88C3076
:106BB0001C68DFF89C60DFF894301B5C43B12A68E6
:106BC00056F8201020460DF0A2FC00B116E070BD72
:106BD0007F2908BF002113462A4656F82000411895
:106BE00020460DF00EFCF0E7FF2804D92946BDE849
:106BF00070400DF087BE4FF49A7103E0BDE870401D
:106C00000DF0F7BEDFF86000BDE87040FEF7CABEC9
:106C1000DFF84C10097801B9704780B50022DFF821
:106C2000301051F82010DFF8140000680DF0E8FC77
:106C300018B1BDE802400DF0DCBE01BD2895002072
:106C400048950020B0D503000BE000F048D50300C4
:106C50007CD403008CD80300E4D503007CD503006A
:106C60008CFF002001E000F00CA503002DE9F047A7
:106C700086B006468A46904699460E9C0F9F109D08
:106C8000029501970094FEF7B2FF18B1022803D0D5
:106C900002D310E001200EE00CBF012000200021F3
:106CA000049103900295019700944B464246514649
:106CB000304600F003F906B0BDE8F08710B586B0A5
:106CC00000F019F80024009411E010B586B000F02F
:106CD00003F8009340230AE0002404940124039461
:106CE000089C02940193002370470093802300F0D6
:106CF000E5F806B010BD0024049401240394099C17
:106D00000294089C0194704710B586B00124049445
:106D1000002403940A9C0294099C0194089C00940A
:106D2000E5E71FB5089C0394079C0294069C019418
:106D3000002400940CE01FB500F001F806E00024E8
:106D40000394069C02940193002370470093402310
:106D500000F06BF904B010BD2DE9F44F84B0064685
:106D60008A461D460024A346D946DDF838804346AE
:106D70002A46FEF734F907008DF80060ADF802A04E
:106D80008DF80450BDF81000ADF80600ADF808808D
:106D900049D069463846FDF7E3FF002843D0002577
:106DA000DDF83C80DDF840A005E006F0A0FD641CA5
:106DB00009F101096D1C3989A8B288422BD2786883
:106DC000ADB20C21694346183888B0F57C4F09DA1A
:106DD0003088ADF806006A4631463846FDF7D6FFE2
:106DE0000028E7D03088BDF81020904238BF0BF162
:106DF000010BDDD3A1B24145DAD206F087FDB078B0
:106E000006F075FD5FEA0A00D1D03079C0074CBFAB
:106E100007200520C9E71FFA8BF111FA84F01FFA49
:106E200089F1884201D1012000E0002005B0BDE8D1
:106E3000F08F70B5C6B015464B9C052C2FDB04AA0D
:106E40000392FF22029205AA01924A9A00922A46D0
:106E500000F0EBF8060024D1FF2205A99DF81000F0
:106E60000DF0D8FD06001AD0201FB04217DB2846CF
:106E700006F04CFD002006F03AFD9DF8100006F0EB
:106E800036FD0C4C2588C5F152018E4207DA324698
:106E900005A9094B5819FFF74FFB7019208046B020
:106EA00070BD284606F032FD304606F020FDF6E7BC
:106EB000000000008AF90020DCA400202DE9F04F3A
:106EC00089B081468A4693469846002004908DF802
:106ED0001490ADF816A08DF81880ADF81AB0129C79
:106EE000ADF81C4000900023002204A905A8FDF77E
:106EF00060FF049808B986208AE0159868B99DF863
:106F0000500004998978884218BF8D20F4D10498E4
:106F10000079C00758BF88207AD5139D049800795E
:106F2000400725D5049880684068029004988068DE
:106F30008068019004988078FFF7DCFA0646049890
:106F4000C0788DF8000003283346024629461DDA32
:106F500002A8FFF72AFA074633469DF80020294683
:106F600001A8FFF722FA012F18BF10F1010F1CD062
:106F7000169800284BD14FF6FF7229460498807866
:106F80000DF048FD060012D1012041E00298FFF704
:106F90000CFA012809D033469DF8002029460198B3
:106FA000FFF703FA10F1010FE2D1872030E00395DB
:106FB000C0B200F030F8FEF76CFE010028D1039556
:106FC000F0B200F028F8FDF7F0FD010020D101201B
:106FD000009000232A46002105A8FDF7EAFE0100E3
:106FE00016D1049B524649462846FEF7B4F902954D
:106FF00000F012F805F026FD0395F6B2029600F0B7
:107000000BF8FEF745FE00F00AF8FDF7AEFD002094
:1070100009B0BDE8F08F02909DF8500001900094F7
:1070200043465A4651464846704710B586B000243C
:1070300001948DF80800ADF80A108DF80C30ADF809
:107040000E200898ADF8100000940A9B099A01A937
:1070500002A8FDF7AEFE010004D10B9911B1019A0F
:1070600092780A7006B010BD10B5DFF8EC07006822
:10707000DFF8E017DFF8E427C860136848615B08B1
:1070800000EB43040C6118B100F00AF8652806D241
:10709000B0210FF2EC70BDE81040FEF783BC10BDCC
:1070A00010B5DFF8B04720696269904202D2C6216C
:1070B00000F088FA2069626900E0E2684FF6FE712C
:1070C000801A084010BDDFF88C17CA68904203D3BD
:1070D0004969884200F037BB0020704780B510B185
:1070E000FFF7F1FF00B1012002BD30B1DFF86427E6
:1070F000D168401A4010401C80B27047010001D195
:1071000000207047DFF84C17CA6802EB4000801E71
:1071100070474088C0F30C00C01C80084000001D70
:1071200080B2704710B50446FFF7F3FF04EB400050
:10713000DFF820174A694FF6FF74904204D20388A3
:10714000A34208BF801CF8D010BD2DE9F84380464B
:10715000DFF80047E08898B3B8F8020001042FD4A4
:10716000DFF8FC7638680FF20C710FF214790DF02D
:1071700077FC20B940F28D114846FEF713FC00253C
:1071800004E00DF06DFC88B16D1CADB2E088854265
:1071900004DB40F28F114846FEF704FCA069396811
:1071A00000EBC50630680028EBD13160B088401C88
:1071B000B0804046FFF7ADFFF18801EB4000F08062
:1071C000BDE8F18370B50446DFF888060078012831
:1071D0001AD12088FFF792FF050027D002262C46FF
:1071E0002046FFF7B2FF608840F40040608034F82A
:1071F0001600FFF783FF040002D060880104EFD57A
:10720000761C042E12D2EAE702280FD1FEF729FBE2
:1072100005462088FFF772FF18B10088C0F30E0002
:1072200020802846BDE87040FEF721BB70BD38B510
:1072300004460D46FFF76DFF61884004020CC1F360
:107240000D01618021462846BDE83840FFF774B93A
:1072500010B50C46A04205D241880A0402D4FFF7BB
:1072600061FFF7E710BD2DE9F14FDFF8E855002089
:1072700092B0A880FEF7F5FA6A8801212970ADF86E
:1072800000206A69002169800192FEF7F0FAE9881E
:10729000A869C90006F0C2FB6846FFF793FF129881
:1072A00048B1002401E08047641C1298E1B250F814
:1072B00021000028F7D10024EF684FF001080DF1FC
:1072C000080938E024B1641EE4B259F824A004E0AF
:1072D0003846BA46FFF726FF0746BAF8020000F420
:1072E0004041B1F5004F26D140F48040AAF8020099
:1072F0004FF0020B26465FFA8BF03AF81000FFF7CA
:10730000FDFE040010D0608801040DD440F400405C
:1073100060802046FFF719FF102EBDBF49F82640B8
:10732000761CF6B24FF000080BF1010B5FFA8BF000
:107330000428E0D33446019EB742C3D3002CC1D108
:10734000B8F1000FB7D0EF68BB46B84615E0384635
:10735000FFF7DFFE0446788801040BD55846FFF797
:10736000C4FE39880BEB440B07EB440801F40041E1
:107370000843388000F078FA0746B742E7D3022086
:1073800028706846FFF71EFF129848B10026044691
:1073900001E08047761CF0B254F820000028F8D1B4
:1073A000EC68274613E04FF0020937F81900FFF7A1
:1073B000A5FE20B10088C0F30E0027F8190009F1DE
:1073C0000109B9F1040FF0D300F04EFA0746474522
:1073D000E9D30AE00446FFF7A5FE4146FFF738FF70
:1073E000B842F7D3B7422ED1544644454AD220463C
:1073F000FFF798FE8246002CF6D060880104F3D592
:1074000000F05AF8A04204D16088C0F30D006080FB
:10741000EAE704D201462046FFF709FFE4E72646E3
:1074200007E05046FFF77EFE41465446FFF710FF47
:107430008246C24507D2BAF80000C0F30E00FFF73B
:107440005DFE8245EDD334B100F036F801001CBF7B
:107450002046FFF7ECFE27463046C1E72046FFF7FF
:1074600058FE06465846FFF740FE07467200214682
:107470005846FFF761F80022394668460DF030FBA8
:107480000BEB460BFEF7EDF906460021A81C0DF0AC
:107490007DFBFFF733FE040006D1BDF8000000219C
:1074A000C5F814B0688029703046FEF7E0F9002C6A
:1074B000D4D113B0BDE8F08F2088C0F30E001DE6D4
:1074C00080B5FFF71BFEBDE8024007E610B50400DB
:1074D00012D0FFF7F5FF18B940F27A4100F072F8C8
:1074E0002046FFF70BFE38B101880A0402D5D0F818
:1074F0000A0010BD083010BD002010BD10B50100FD
:1075000013D0FFF7FBFD0446FFF7E8FD18B940F282
:10751000944100F057F844B12088010401D5208936
:1075200010BD6088C0F30C0010BD002010BD2DE917
:10753000F04100F044F804003FD00FF24437FFF769
:10754000CDFD18B940F2A74100F078F82846FFF7C2
:10755000D5FF80462046FFF7E5FD054646452CD081
:1075600003DB40F2AF4100F069F82088010448BF16
:10757000268122D466802046FFF7CBFD04EB400431
:10758000FEF76FF9DFF8CC124A692E1BB6B29542AE
:1075900004BF4C610026FEF76AF9082E06D2314678
:1075A0002046FF22BDE8F04104F072BC08212046CD
:1075B000FEF7BEFFA6F108006080BDE8F081054639
:1075C0000E469BE50FF2B820FEF7ECB938B50D4634
:1075D000FFF794FD04000AD0FFF780FD18B940F2D0
:1075E000EC41FFF7EFFF04EB4500808832BD00203F
:1075F00032BDF8B50D461646FFF780FD04000FF2C8
:10760000802714D0FFF76AFD18B940F2F74100F067
:1076100015F83046FFF772FDFFF760FD18B94FF41B
:107620009F6100F00BF804EB45008680F1BD384601
:1076300040F2FB41BDE8F440FEF7B4B93846FEF72E
:10764000B1B92DE9F84F8846C11C89084900091DC8
:107650000027DFF8005204461FFA81F92E690FF265
:10766000202AB0F5005F04D340F227515046FEF7C0
:1076700099F9FEF7F6F88346E869696908B9711A5D
:1076800003E05FEA080202D0411A4E1009E0301A06
:107690004010064680B220B940F24D515046FEF7E8
:1076A00081F9B6B24E4514DB6F6907EB490068619A
:1076B000E86928B1B8F1000F04BF00EB4900E861A8
:1076C00000207C80B880F8803880298908346418CC
:1076D0002C815846FEF7CBF83846BDE8F24F04E55A
:1076E00070B504460D4611462846FFF7AAFF064628
:1076F0003CB1300005D0FFF7E9FE2A462146FEF7EF
:107700001BFF304670BD38B50446FEF7AAF80546A3
:107710000022214653480DF0E3F92846BDE83240E7
:10772000FEF7A5B838B5FEF79CF8044600214D4891
:107730000DF02CFA05462046FEF799F8284632BD92
:1077400044484188481E8041C00F70472DE9FE4FD4
:1077500004462088884616469B46FFF7CFFC07461E
:10776000FFF7BCFC18B940F28D61FFF72BFF38889A
:107770003546010403D538892D183D8167E000F0B6
:1077800077F8019000F070F88146FEF76AF80096ED
:107790008246304E706981451DD1FFF781FCA842B9
:1077A00003D25046FEF763F821E001982D187D8042
:1077B000BBF1000F08D02088FFF788FE019B009ADC
:1077C0004146184407F05CF900F04EF870615046ED
:1077D000FEF74DF83BE05046FEF749F800F048F858
:1077E0002D180021A8B2FFF72CFF070001D11A20A5
:1077F0002EE000F03DF805462088FFF767FE0646BC
:107800003846FFF763FE2A46314607F039F9BBF1E7
:10781000000F384609D0FFF759FE00F028F8009A0B
:107820004146284407F02CF907E0FFF74FFE00F02F
:107830001EF800992844FEF77BFE20880121FFF7FF
:10784000C5FE024601213846FFF7D3FE27800020FF
:10785000BDE8FE8FA4F700209496002098960020A3
:10786000F4960020A6F700203846FFF75BBC0546DB
:10787000208843E6756E636C61696D656400000085
:107880006275666665722D6D616E6167656D656EA8
:10789000742E6300704770470020704770470020C7
:1078A000704700207047704770470020704770474E
:1078B00000207047002070477047002070477047D5
:1078C0002DE9FE4F93461F4682460023ADF8003057
:1078D0007E20884608F4406201920021FFF7B1FE45
:1078E00008F440445FEA000900F09280FFF7EEFDE3
:1078F0007E21FEF71DFE4846FFF7E8FD0290484650
:10790000FFF7E4FD0025BAF1FF0F18BF48F00308A8
:1079100080F800804FEA18214170C61C019818B108
:1079200037703F0A7770B61C01985946B0F5006F62
:1079300030460CBF022708273A46FEF7FDFDF61930
:107940003CB15FEA486004D40D983070000A707052
:10795000B61CB4F5004F08BF022704D0B4F5404F61
:107960000CBF082700270C99119C3A463046FEF7B9
:10797000E3FDF019029E861B210015D0DFF83413B9
:107980000A78871C02704A7842702046FFF79EFDF5
:1079900083462046FFF7B2FDC5B22A46594638460F
:1079A00007F06EF87819AD1C0F9CBAF1FF0F06D0E6
:1079B0000E9900F801AB2246761C07F061F854FAE4
:1079C00086F050FA85F1484689B2FFF7B0FD0C21E8
:1079D000BAF1FF0F129A109C08BF08215FEAC86035
:1079E0004CBF80200020014300200DF009FAADF8C3
:1079F00000004846FFF782FD05464846FFF766FD52
:107A000001460123EAB26846FFF7A0FE00F04BF9F9
:107A1000BDF80000BDE8FE8FF6B50022DFF8984201
:107A200087B0059204924FF4B87250430691012535
:107A300022184820414303950EAE50184FF6FF77A9
:107A400000F1DA0502960197009508AA4CF620018C
:107A50000120D3E070B588B00C980D46DFF858428D
:107A60008DF81E00482045438DF81C3006916019A2
:107A70001B0A0021032407AD00F1DA068DF81D3042
:107A8000059104910394029501910096B0F8D630C7
:107A90004CF660410220FFF713FF08B070BD48208C
:107AA000DFF81422F8B50B46434388B04FF6FF7752
:107AB0001A4402F1D600438802F1DA044FF6FE754B
:107AC000ADF81C3003888089ADF81E00BDF81E603B
:107AD000BDF81C00BE420FD0A84206910DF11E0257
:107AE000BABF07AC48F660004CF6600000F014F82E
:107AF0000420FFF7E5FE0DE0A8420691BABF07ACEF
:107B000048F660404CF6604000F006F8E43204208D
:107B1000FFF7D6FE09B0F0BD002105910491039155
:107B2000029101910146009470474820002210B54F
:107B300088B00691414305920492039202925E4AF4
:107B400050184FF6FF7300F1DA04ADF81C300193C2
:107B5000009407AA4FF4484106201CE00B46482237
:107B6000534310B5544888B0C218B2F8D8400691B3
:107B700000210DF11E004FF6FF7305910491039152
:107B8000029101910090ADF81E40ADF81C3007AA9B
:107B90004FF400610720FFF793FE08B010BD00000E
:107BA0004820F0B50D464543434C89B02C4404F1C0
:107BB000D4067588B7888DF81E70280A3F0A8DF89C
:107BC0001C508DF81D008DF81F70367800208DF840
:107BD0002130059004908DF820601B0A04F1DA0032
:107BE0008DF822300691072607AF00900396029782
:107BF00001954FF6FF734FF44C410820FFF760FEEC
:107C000009B0F0BD48202DE9F841164688464246A5
:107C100042432949A1B011441C4601F1D6025088C3
:107C2000DA314FF6FE73128801AF984204D1002575
:107C30008DF80450C02503E000258DF80450802500
:107C40007D70FA70120A3A71984207D108220DF13C
:107C50000900FEF771FC0DF1110705E07871000ACB
:107C60008DF80A000DF10B073E70360A00207E7079
:107C7000B870F870ADF8000042460C210DF0C0F865
:107C8000ADF8000060B13A1D01A8121A0123D2B26A
:107C900001A96846FFF75AFD00F005F8BDF800009D
:107CA00022B0BDE8F081BDF8000022460121FFF7B7
:107CB000A0BC0000A89A0020A8F90020DFF8C41991
:107CC000C873704770B5DFF8C05929783824DFF8D9
:107CD000BC693068614301448A78112A04D0B42118
:107CE000DFF8AC09FDF75EFE28783168412214FB0D
:107CF00000F40819827070BD10B50220FEF742FD35
:107D0000FEF747FDDFF88039DFF880091C7801684D
:107D100038204443DFF86C2908194178042903D13D
:107D2000107C401D107405E04FF47A7102F11800C8
:107D3000FCF769FDBDE81040FEF72CBD80B5DFF80B
:107D40005409FFF73FFADFF85009FFF73BFA0DF04F
:107D500087F8BDE8014002F0EEB8DFF82C29DFF823
:107D60002C091378016838204343C81880783328D9
:107D70001CBF4328532801D10120704700207047C1
:107D80002DE9FF4E0DF086F80DF0D3FA002867D0EC
:107D9000DFF8F04800202076DFF8000901790C3088
:107DA00001F07CF9207D18B102F0BEF800202075AA
:107DB0000021217300F056F80FF0C9FA0DF0DDF83C
:107DC000DFF8DC0800274825DFF8BC68DFF8D4B806
:107DD00000F1E40900F1E20A9BF80010F8B28842D1
:107DE0003ED2FEF7D6FC30784FF6FF7268433AF881
:107DF0000010914218BF012107D1002208214844F8
:107E000005F029FA411E8941C90F94F8202002F09B
:107E100001020A4220D03078082268433AF8001064
:107E2000ADF8081009EB00016846FEF785FB0A2350
:107E30000A2201F087F9DFF8540896F800C00168BB
:107E4000382010FB0CFC02230B2201EB0C0000F18C
:107E50002C0100200FF08EFCFEF79CFC7F1CBBE782
:107E6000BDE8FF8E10B5DFF820080178DFF81C2888
:107E70003820136810FB01F018444078032818BF1D
:107E800004280CD148204143DFF814285018B0F8DA
:107E9000E2104FF6FF72914208BF032008D005F0B0
:107EA00039F9044605F03FF9214606F0D2FB0220DD
:107EB00005F05EF90FF00CFD00F096FF0FF073FA7D
:107EC00001F0D8F920B10020BDE8104002F016BE44
:107ED00010BDF8B5DFF8B077DFF8A847E073397860
:107EE0003825DFF8A867306869430144887803289B
:107EF00018BF002823D0332818BF432819D100F019
:107F00001FF83978306815FB01F5421951780329BB
:107F100018BF042907D10321801C4155E07BBDE82F
:107F2000F240FEF7A1BCE07BFEF79EFCBDE8F1400D
:107F300098E721208870BDE8F1400FF038BFF1BD0F
:107F4000E37B13223FA1032010F0E7B838B5DFF838
:107F5000383701F003FA00214FF6FE701519A970A9
:107F600010F0BFFA4FF6FF7010F0D7FADFF81447A1
:107F7000FFF7E6FFE07BBDE83240FEF775BC00008E
:107F80002DE9F8430546DFF8380B09F0E5FD80469A
:107F90002B4618222BA10320DFF8EC6610F0BDF869
:107FA000002088F8000031783827DFF8E096D9F80B
:107FB00000007943702408444178032918BF04293C
:107FC00024D00024290007D1416B91F82400E8B1A6
:107FD00081F824409D2017E0FF2D06D04FF47A70E1
:107FE000454340462946FCF70EFC3278D9F800108C
:107FF00017FB02F701F13400C15991F8240028B9A8
:10800000012281F824209C20FEF72EFC00F0ECFEDB
:108010002046BDE8F28338B5FCF7F1FC0446DFF8F2
:10802000A01A09F09AFD0546FF2818BFFEF7B1FB1C
:1080300000202070FFF7A4FFFF2D01D001F03BBA14
:1080400031BD00004242000038B588B004460D46FC
:10805000686916220790297C0691E8890590297B9A
:108060000491E87A039095F90A10032002912B8974
:10807000CDF800500BA10193234610F04EF80120DB
:1080800001F07EFF287B00280CBF4FF6FE7010F039
:108090001CFA2B462246014609B00120BDE83040BB
:1080A000ABE000004242387057424242574244001F
:1080B0002DE9F047DFF8D09599F800C08846DFF841
:1080C000CC653824316814FB0CFC1D4682468B1CA1
:1080D00013F80C0000284BD1170049D0042F47DCBF
:1080E00001F064FD002843D1FEF755FB00283FD185
:1080F000FEF753FB08B1042F3ADB287B032817D186
:108100004FF6FE71884515D1012F08BF4FF00008CA
:1081100010D0022F2CD110F0D8F94FF6FC71884204
:1081200002DA10F0D2F901E010F0BAFA804601E06C
:10813000012F1DD0BAF1000F0CD0287B0328384640
:108140000CBF01210021012F18BF002010F074FD89
:10815000010030D12946404600F03BFF01002AD102
:10816000FEF715FBFEF7F8FA20B1FEF716FB08B193
:10817000702020E099F80020306814FB02F4811C84
:10818000085D332818BF532803D00020DFF8F4140B
:108190008873384600F0E0FE00214FF6FF7001F0D2
:1081A000E7F8DFF86017087820B1FEF7F6FA08B9AB
:1081B00011F0A9FF0020BDE8F08738B50446DFF8CC
:1081C000C45408222146281DFEF7B6F9207BDFF8AB
:1081D000B8340228C8BF0020287028789421E97399
:1081E0000028DFF8A8041C780CBF012131210268A7
:1081F000382044431019817031BD38B51C46FFF753
:1082000057FF010032D1207B0328204602D1BDE870
:10821000324062E0FFF7D1FFDFF86804002181817E
:1082200005F06AF8014640094FF0010305D1DFF877
:10823000E80B027803FA01F108E001F01F0140F0B9
:10824000180003FA01F1052241EAC0610620FDF79A
:1082500061FA01000AD0DFF83044DFF830142578E5
:108260000B6838214D43002259198A7032BD10B570
:108270000446DFF81424DFF814041378016838206A
:108280004343C8184078032818BF042806D1E07972
:10829000C10744BF94F9050011F0C9FF207801F02F
:1082A00017F801F052F8228961890346002012F084
:1082B0003BF8040004D09420FFF70BFE204610BDCD
:1082C000DFF8C0439420E0730220FEF75AFA00F072
:1082D00081FD03202074002010BD10B5044600224B
:1082E000082104F0B8FF08B1012010BD10F0EDF82E
:1082F00000224FF6FF7100F0A7FE217C204600F01F
:10830000CDFE6269E189207C0FF02BFBDFF878233A
:10831000DFF878031378016838204343C8184178A0
:10832000012908BF11F0B0FAFFF79CFD002010BD35
:108330002DE9FC4100F0A6F804460A44907810B9F3
:1083400001F034FC08B1702094E001F022FEDFF867
:1083500034832CB10222214608F12000FEF7ECF80C
:10836000684600F0CFFF08B1932083E09DF800300D
:10837000142274A103200FF0D0FE00F0E7FE0100EC
:1083800078D19DF8000000F0E7FD327838686A4344
:10839000411C885C012818BF022808D0032818BF98
:1083A000042842D1002001F029F800283DD000F037
:1083B000E4FE327838686A43411C885C032814BFA5
:1083C000042812F0B0F8FFF74DFD012012F0D0F8AC
:1083D00001004FD13078396868434A1C125C032A87
:1083E00018BF042A0ED198F820309C0708D5052222
:1083F000DFF8C816012000F04FF8010039D039E04D
:10840000032A01D0042A34D1084400F12C010223AC
:108410000B2201200FF0AEF900F02EF891F82C207D
:10842000500726D50CF0D7FE23E0317838681322A8
:1084300015FB01F5012441198A70002088F80D0010
:1084400004F05AFF400903D104F056FF84400BE0CA
:1084500004F052FF450904F04FFF00F01F0045F003
:108460001805844044EAC564052221460820FDF72A
:1084700051F90020BDE8F6813178386815FB01F527
:1084800041197047804E32783825804F39686A43E9
:108490007047FF2200E000002DE9FC4116468046AF
:1084A000794A0D4600F0F0FD3FD08778022F07D0C3
:1084B000032F3AD15FEA080102D10079810734D451
:1084C000332004F055FE0CF0E5FC15F0784F2946FA
:1084D00012BF0522DFF8400902780620FDF71AF9DD
:1084E0000446A0B9674F3873012001F049FD10F030
:1084F00008F878805FEA080014BF02200120387075
:10850000381D00F017FF00207873BE7302E0384674
:1085100004F02EFE5FEA08003146284602D0FDF73F
:108520005BFB03E0FDF757FB00E07024019400952E
:1085300043462C2204A103200FF0EFFD2046BDE8A6
:10854000F681000042420000424244420000000026
:1085500010B5FEF7BBFF00F11004204612F00AF838
:108560004FF6FF5101402046BDE8104012F008B818
:108570002DE9FF470646444D0FF0A7FF2A788246B3
:10858000DFF808913824D9F800006243411C885C68
:10859000032818BF042806D1F079C10744BF96F913
:1085A000050011F044FE3078DFF8347C4FF04808C5
:1085B00000F08EFE7089002100F0DAFE04F05DFE0E
:1085C00078B1BAF1000F03D04FF6F8718A4508DB95
:1085D00010F066F82978824618FB01F17A5A904229
:1085E000F6D050460FF07DFF30890FF096FF062041
:1085F0008DF8080000F0A9FE8DF809000020019018
:1086000000902878022302AA18FB00F00121385AB2
:1086100012F001F9064620B91820FFF75AFC18207D
:1086200022E0287818FB00F8304637F80810154F7C
:108630000CF043FB387802281CBF3046FFF788FF58
:1086400000F06DF8C8B19420F8730220FEF799F895
:108650002A78D9F8000000F0B6FC08D1C82100F053
:1086600031FA03203874002004B0BDE8F0874FF4DD
:10867000167100F027FA0020F4E79420FFF729FC98
:108680000120F1E7D8F70020D8FF0020C496002091
:10869000F89400002AFF00202CFF0020FCF70020A7
:1086A000A8F90020D09A002078B587B00C4616466D
:1086B0001D4630B9204609F03CFB03A911F04CFCE3
:1086C00003A80C99019007238DF8096001208DF80B
:1086D0000830360A8DF80B1000908DF80A600423DC
:1086E00002AA0121204612F096F8060014D0214675
:1086F0000CF0E3FA15B93046FFF72AFF0D9808B9D8
:1087000030460AE0204609F041FC18B1304612F02C
:1087100090FA01E000F003F8002008B070BD0022DC
:108720000021304612F069BE2DE9F64F85B08A4629
:108730001C4610460CF089FB0546BDF8180003A93D
:10874000002712F0A4F8002C4FF6FF79B84614BFAA
:108750004FF0010BBB460026BBF1000F07D008B15C
:108760000DF10C086678760806F0010604E0BDF805
:1087700018000CF0DEFA8046DFF8F01B0978DFF80D
:10878000782C382012684143531C585C032818BFCA
:10879000042800F0B38010986B1C11441D5C8DF808
:1087A00008A0680800F001008DF809002806887804
:1087B00058BF45F08005022807D15FEA0A0002BFD2
:1087C000496B91F82400002801D1022730E040468F
:1087D0000FF0ECFDADF80000BDF818000CF0BFFA8A
:1087E000814608B94FF0010930000CBF4FF0050A6F
:1087F0004FF0010ABBF1000F04D0201D11F0BAFEAA
:10880000834601E0BDF800B0BDF818000CF023FA73
:10881000CDF80490CDF800A02B465A46414600F012
:10882000010011F079FA00F06FF8814608BF0127C6
:108830009CB19DF8080018B9484600F065F802D1CF
:10884000201D11F097FE012101910146009733464A
:108850004A464046FFF728FF0AE0BDF818000CF032
:10886000FAF93B464A46414600F0010011F04DFD41
:108870009DF8090020B94FF6FF71404613F016F934
:10888000002F3BD19DF8090028B14146484613F01E
:1088900038F913F09BF930001EBF48464FF6FF71C0
:1088A000884219D009F045FAFF2815D0DFF8BC7AC4
:1088B00097F800C0DFF8401B0A68382111FB0CFC58
:1088C00002F134034BF6FF7153F80C20526832F872
:1088D00010300B4022F8103084B10FF0F6FD0EB1CD
:1088E000002405E09DF80810002914BF032401248A
:1088F000014643464A46204613F078FB07B0BDE8E0
:10890000F08F0000E39A00204FF6FF718842704715
:108910002DE9FE4F81460F46144601A9384611F055
:10892000B6FF83460020009038460CF08EFA82464F
:10893000DFF8445B5FEA090108D0BBF1000F18BF04
:108940000DF1040B11F098FF064604E038460CF0D8
:10895000F0F983462E4638460CF077FA02590DF1AD
:108960000100009211F006FE80469DF803405FEA88
:10897000090006D008222946304613F08DFE002853
:1089800023D1DFF8E86931783825DFF8342B15FB7F
:1089900001F112685318D87818B19AF801008307CA
:1089A00014D55FEA090011D0901C415C022908BF70
:1089B000002C0BD140460FF094FD0EF0C8FC99231B
:1089C000FFF7BFFA9920FDF74FFF6EE004F055FC6A
:1089D0000028DFF8F07A18BF002C05D09420FFF7AC
:1089E00078FA0020387660E004F047FC00285CD07C
:1089F000584612F09AFEFF28DFF8E44718BF5FEAF6
:108A0000090106D13278482059464243A05A13F052
:108A100078F813F0DBF8317848205A464143404655
:108A2000615ADFF89C4A00F00FFBDFF89C0A90F9CE
:108A30000210090279843078216815FB00F08A1C45
:108A4000125C012A16BF312A11224322891C0A54C2
:108A50000220FDF796FEDFF8740A016800F032F894
:108A600011F061FD00203874317815FB01F52168A3
:108A70004A19D07820B907F11800FBF7B9FE12E0C7
:108A8000B9F1000F06D09AF80100820702D5FFF76E
:108A900077F908E0481C415D042904D1052100F064
:108AA00011F809203874AD21F97300F0E3FB10B11F
:108AB000002002F023F8BDE8F78F000000F8FF0760
:108AC0001CF7002007F11800FBF79DBE2DE9F04FC1
:108AD00088468DB040460CF0B8F983460922002143
:108AE00013F00CFE054640460CF023F9814602AB1C
:108AF000052205A9404613F059FE8DF80000022812
:108B00002BD09DF8080000234519EDB20BEB050AA8
:108B10009AF8001005F11002D2B28DF8011041460A
:108B2000012013F05DFE002817D09DF801003826C3
:108B3000DFF83878DFF8884901280FD0022819D0EB
:108B4000042800F0CF80062822D0072800F0958066
:108B500008283AD07C2800F09780E9E040460CF0E5
:108B60007AF8009500234246002100F00100FFF74B
:108B7000DBFDDDE000F0DFF8012B02BFDFF8441978
:108B80000878002803D12A464146FFF7C1FECFE00E
:108B9000484609F07EF84FF6FF710546884208D036
:108BA00040460CF058F82A46494600F0010011F002
:108BB00097FB00F0C0F8022B06D1FDF7E7FD484611
:108BC000FCF7FFFFFDF7E6FDB2E00AF1010011F04E
:108BD000D1FCADF800000AF1030011F0CBFC054612
:108BE0000AF1060011F0C6FC4FF6FF71824688427A
:108BF000EAD011F098FC3A7820687243811C8B5CB3
:108C0000132B08D100F0B9FA40460CF092F8014657
:108C1000284612F076FF3A7820687243811C885CFF
:108C2000022818BF132821D150460FF05AFCBDF876
:108C300000000FF072FC0021002000F02FFA4946DE
:108C4000284600F095FBDFF88008C078DFF8801830
:108C50000F28B4BF401C0F20087000F0C5F838780A
:108C600016FB00F62068811C8A5D132A60D123213F
:108C7000801C8155FCF7C0FD5AE09DF8001005AA44
:108C8000404601F093F953E09AF80100652802BFCD
:108C90000BF10201485D6D284AD140461335FEF7BD
:108CA0002DFCE9B2814243D20822494603A8FDF7D0
:108CB00043FC6A46E9B2404611F066FCC0BBBDF811
:108CC0000000A8B3DFF80C4801202070FDF75EFD1E
:108CD000BDF8001003A8FCF76AFFFDF75BFD00205C
:108CE000207025E006220021584613F007FD584465
:108CF00011F040FC04460FF610000088002101919D
:108D0000ADF80A00009102230DF10A02012120466C
:108D100011F081FD06000BD021460BF0CEFF40463E
:108D20000BF099FF0022314600F0010013F06BFDBB
:108D30000DB0BDE8F08F3A78206816FB02F6811C72
:108D40008B5D7047F8B50220FDF71CFDFDF721FD96
:108D5000DFF87047002020763825DFF81066DFF84E
:108D600060770CF0E6FA40B1327839686A430A4419
:108D7000D07810B9FFF704F82BE00CF0DAFA10B94C
:108D800004F07BFA68B1207C58B100F023F8207C15
:108D9000411E2174FDF7FBFC0146002002F035F86E
:108DA00017E0327838686A43811C8B5C132B0DD036
:108DB00004F063FA50B93278386815FB02F5811C6B
:108DC000485D11281CBF4328412802D1E07BFFF7F2
:108DD00080F84BE2C82104F11800FBF714BD002015
:108DE000DFF8E0160874704780B5FDF7FBFCFF283C
:108DF00007D000F065FA416B91F8240010B1012012
:108E000000E0002011F016FADFF8B80600214180DA
:108E1000001DC0E9001101BDE49A00202DE9F843CE
:108E20000F460446DFF89C560121DFF89C8684B08B
:108E300091466973404601F082F8FEF72DFD002847
:108E40007CD1012C18BF042C00D084B9CDF800903F
:108E50003B462622AEA103200FF05FF9FDF796FCFA
:108E60004946384600F0EDFDFDF794FC66E0DFF87A
:108E7000FC442278DFF84866382730687A43811C42
:108E8000885C23280DD104F045F9044604F04BF921
:108E9000214605F0DEFB022004F06AF90CF06DF8C3
:108EA0004CE0B9F1000F49D121281CBF04285328F8
:108EB00002D10EF07CFF41E004F0DFF9E0B101F0F7
:108EC0005BF828B9287B00280CBFAB20942030E049
:108ED000404601F034F828B140F2CF610FF218603B
:108EE000FCF760FD28780028404602D1FFF7BFF963
:108EF00024E0FFF73DFB21E0227830687A43811CB3
:108F00008B5C132B1AD100F019F9BDF800000FF09B
:108F100004FB00F032F9207817FB00F73068C11924
:108F20004978032918BF042906D13321801CC15573
:108F30009620FEF7CEFF01E0FEF794FF10200021FF
:108F400009F006F810B912F0A3FA10B1002001F0F0
:108F500058FF05B0BDE8F083F8B50746DFF80C54BC
:108F60002878DFF85C653824316860434A1C135C5C
:108F7000BB4204D0491C0F543846FDF76EFCFEF787
:108F800094FC60B13FB90020FEF791FCFDF7FFFBB8
:108F90000146012212E00120FEF789FC00E027B122
:108FA0002A78306800F00FF804D1FDF7F0FB014695
:108FB000002203E0FDF7EBFB012201460020BDE8A3
:108FC000F84013F05DBE14FB02F4411C0B5D042B52
:108FD000704770B592B006460C46FDF7CEFBE17ABD
:108FE0000546002014F031F908B98A202AE094F9E6
:108FF0000A0004F061F908B18B2023E000F07BF94E
:10900000E17A00F8D41FA27A294642706A4600200D
:1090100001F0FFFD4FF6FE708642ADF804606A462F
:109020000CBF4FF6FF702089ADF8020029460020E2
:1090300001F014FD08B1022004E02089DFF8841457
:109040004880002012B070BD38B50C4615460FF0B0
:1090500048FA0FF0DDFA2946204600F089F900F0C1
:109060008BFF38B1DFF86004C0780F28ACBF0F2049
:10907000401C05E0BD4A00F007F80CBF00200120AD
:10908000DFF84C14087031BDDFF834041378016840
:1090900038204343C8184178012970477FB50446FA
:1090A0000E4600F04BF8B14DC4B1DFF82C2400217E
:1090B00030460EF056FC29783820CF4A41431068DC
:1090C0000822435C08448DF80430417802A88DF8EA
:1090D00005102146FDF730FA15F07AF82A78482075
:1090E000DFF8F8134243881810F8D41F8DF80310E6
:1090F00041788DF802100FF004FAADF800000FF07F
:10910000E4F9ADF8060000F01BF87FBD0000000098
:10911000424242001FB5044600F010F81CB1002086
:109120008DF8050007E00FF0D0F9ADF806000FF05C
:10913000E8F9ADF8000000F003F81FBD684651E003
:1091400010230722694600200EF014BB80B58AB0B8
:10915000FFF7F4FFBDF8000004A9ADF818009DF872
:1091600003008DF81B009DF802008DF81A00BDF871
:109170000600FFF72EFF0BB000BD70B586B00120D2
:1091800000F03CF90FF28431D1E900234FF6FF756E
:1091900004002E46CDE900230ED074490A784820F9
:1091A000DFF838634243B018B0F8E26000F1E40140
:1091B00008226846FDF7C0F915F01BF802A800F078
:1091C00011F8002CBDF80E000EBF00226A4635468D
:1091D0002946FFF739FF15F010FB06B070BD0000FF
:1091E0008AFA002001461023072201200EF0C2BA9D
:1091F000F8B504460820FDF7C5FAFDF7CAFA5B4D3D
:10920000DFF8DC022B78017848204343DFF8CC22DA
:10921000D01880F8D41000F02DF810B1002001F023
:109220006DFC00210020FFF739FF29783826724FA6
:109230003868714301444878032818BF042802D1D4
:1092400010F0F6FF01E010F08EFF204601F024FD43
:109250009B23FEF776FE9B20FDF706FB29783868F6
:10926000002216FB01F6304402854285BDE8F1403C
:10927000FDF790BA002013F091BF10B504462146C7
:10928000002013F0E2FF08B98A2010BD00F018F8A2
:109290008078022818BF032801D0702010BD9048A4
:1092A00004700820FDF76DFA00F080FC08B13D2045
:1092B00010BD8C4A8C4901F0D6FC00B1A12010BD34
:1092C0002A4A7F481378016838204343C8187047FA
:1092D00010B5044600F06AFC08B13D2010BD00F056
:1092E0000AF880F8D440FFF7C5FF10B1002001F064
:1092F00005FC002010BD1D4A1378482077494343E0
:10930000C818704738B584B004466846FFF76AFF4E
:109310009DF8050040B1042806DC00F09AF89DF89D
:109320000410525D8A4201D0932001E02070002099
:1093300005B030BD1FB504466846FFF753FF08224D
:1093400002A92046FDF7F8F81FBD084B10B500F044
:1093500005F8664910194278885C10BD58481C7899
:10936000026838204443704700000000D8FF002006
:109370002DE9F84381465E4E307848250C46684317
:10938000564F92B0391807F1E408A1F8E290404432
:109390001CB90821FDF7CCF803E008222146FDF7AF
:1093A000CBF8FDF7EAF901466A46002001F031FCEE
:1093B00030780822684308EB000104A8FDF7BCF8E8
:1093C000ADF80E90FDF7D9F901466A46002001F08C
:1093D00045FB30784FF6FF7115FB00F57819B0F8B2
:1093E000E20088421EBF002C08EB0501FCF7F7FBEA
:1093F00013B0BDE8F0830000C49600203EB50446DB
:10940000304890F820104FF6FF75C80708D500F0D7
:109410001AF8BDF80800A84202D000F00FF828B1F1
:1094200000212846FFF7A4FF00203EBD24B1BDF86F
:1094300008006946FFF79CFF01203EBD0822FF217E
:10944000684603F008BF0A230A22694601200EF08D
:1094500091B9274B1A491D780A6838214D43704746
:10946000234A17481378016838204343C818416BD2
:1094700091F826007047000014F8002038B5FBF77B
:10948000BEFA05461B4908F068FB0446FF2818BFD2
:10949000FDF77FF9164B002028701D780849382009
:1094A0000A6845435019416B0020FF2C81F82600C3
:1094B00000D000E031BDBDE83140FDF76BB90000E0
:1094C000C4960020D8F70020FCF70020F896002072
:1094D000E8FF0020CCF7002000F8FF07A8F90020E3
:1094E000DAFF0020215A0100F19100001CA20100C6
:1094F000D8FF00205CF700206173736F63696174AB
:10950000696F6E2E6300000004600000FFFFFFFF24
:10951000FFFFFFFF10B5FCF765FB012300224FF4AE
:10952000E131212002F01AFC15F008FC044615F088
:109530007AFC23460246DFF89C14012003F019FF51
:1095400015F006FC044615F072FC23460246DFF8CF
:109550008814012003F00DFF40F2A17415F063FCA4
:10956000C440E0070CD5DFF87444207815F06CFC9B
:10957000207815F0FDFC2078BDE8104015F0B6BD50
:1095800010BD38B5002200216846FCF757FB08B132
:10959000009832BD0EF0C4FD68B10346DFF84024E8
:1095A000DFF84014012003F0E4FEC221DFF83804A4
:1095B000FCF7F8F904E0DFF83414022003F0D9FED8
:1095C000FBF718F804F02EFAFBF736FAFCF7F0FF79
:1095D0000221022015F006FE04F05BFD04F079FD87
:1095E00015F060FE41F26820DFF804140880522074
:1095F000DFF800140880DFF8001408804FF4004002
:1096000014F03EFC83A4DFF8F45301E0FBF707F805
:10961000FDF78EF90EF0E0FDFBF706FA012818BF02
:10962000FCF7CDFFFAF754FF2121002015F05AFE78
:109630000028EBD02A4621464FF6FF7003F09FFE2C
:10964000E4E70EF042BF03F0EBBD16F03ABE30B5D2
:1096500085B002A816F084FF78B900246946204638
:1096600004F022FE082202A9684613F015F888B11A
:10967000641CE4B2022CF1DB12E016F069FF05462F
:109680004FF6FF7085420BD00024204604F024FEE4
:10969000A84201D1204604E0641CE4B2022CF4DBB1
:1096A000FF2005B030BD7FB500F0C0F80EF00DFF13
:1096B00040B16088B0F5006F04D1601DFCF7C2FABC
:1096C00005461FE02046FCF7EFFAA0B9002500266A
:1096D0006946304605F030F8002804BF9DF80000C8
:1096E00000280AD12146304605F032F850B17528DD
:1096F00007D18B2506E08D2504E0761CF6B20C2EF2
:10970000E6DB8C25FAF789FF284604B070BD10B55A
:1097100000F08CF82046FCF7C5FA28B9204605F081
:1097200064F818B9002405E08D2403E075280CBF07
:109730008B248824FAF771FF204610BD38B5044603
:10974000FF258DF800506946FCF76EFA10B19DF8C0
:10975000000032BDFDF713F8A94901EB0411097BA4
:10976000814207D12046FBF7A3F918B12046FBF749
:10977000B2FC0546284632BD70B504460D46FCF7DE
:1097800055FAF8B92046FBF7A2FC0646FF2E07D093
:10979000FCF7F5FF9A4901EB06110A7B824201D0E2
:1097A000002070BD48882880888868808879287162
:1097B00001212046FBF794FC687100212046FBF74D
:1097C0008FFCA871012070BD2DE9F04105460E46C1
:1097D0009046FBF77CFC07464FF6FF74FF2F14D032
:1097E000FCF7CDFF864901EB0711097B81420CD1C3
:1097F000300008BF012202D0012E06D100224146CE
:109800002846FBF794FC00B104882046BDE8F081AF
:109810000000000025703E0010B500F007F820465B
:1098200004F0FAFBBDE81040FAF7F7BE0446FAF779
:10983000E9BEF8B504460D461646200005D0FDF7F2
:109840005DFE0746C0B2864201D20020F2BD002074
:109850000090FBB200222146284616F0B5FEF8B271
:10986000F2BD70B598B004460D461646FAF7CAFE2A
:10987000522203A93046FFF7DCFF060011D00DF19C
:10988000090016F05EFE02A816F05DFE03A8019026
:1098900000969DF908309DF809202946204604F0DD
:1098A00014FBFAF7BAFE18B070BD1FB50B460024C2
:1098B0006A460146184616F0D0FF00203DF8001019
:1098C0004C40801C1028F9DBA0B200B90124A0B2E2
:1098D00004B010BD2DE9F04198B005460E46904603
:1098E0001C46FAF78FFE522203A92046FFF7A1FF7C
:1098F000074690B11E9C2146284617F070F839465D
:1099000003A8FFF7D2FF029003A801900097234617
:1099100042463146284604F023FBFAF77EFE18B093
:10992000BDE8F0812DE9F04383B004468946164630
:1099300098460A9D002241462846FDF7D1FE0700C1
:1099400008BF18203CD041462846FFF7AEFF0B99D0
:1099500008800C980D9A062C31D8DFE804F0040436
:10996000040D16281F003B4632464946204603B0E8
:10997000BDE8F04316F055B93B461E221E21304685
:1099800003B0BDE8F04316F045BAF17A01920090B9
:109990003B460A46304616F007FA11E03B461E22C7
:1099A0003146484603B0BDE8F04316F0A1B901972F
:1099B000F17A00913346494616F0BAF900E00220E8
:1099C000BDE8FE8308220F49FCF7B6BDFFF79ABC3D
:1099D0000C2070475886030070860300B09A002060
:1099E000A486030090860300AC860300BC860300B7
:1099F000989A00209C9A00209E9A0020C886030016
:109A00009CA2002014F8002010B582B0FFF70EFFD2
:109A10000DF1010016F095FD684616F094FD00F07A
:109A20000AF817F0CAF818B900F005F8FAF792FE2C
:109A3000FAF7F3FD13BD9DF900209DF801102046B3
:109A4000704738B500F01AF82946204617F07FF81D
:109A500018B929462046FAF788FE0BE038B500F021
:109A60000DF82946204617F0DBF818B9294620469C
:109A7000FAF767FEBDE83140FAF7CFBD04460D4660
:109A8000FAF7C0BDFCF7B6BDFCF7A4BD0A464FF619
:109A9000FF718A4204D00FF27D31002001F0C9BB72
:109AA0002120704710B5DFF868446078012819D18B
:109AB00071B9002013F0A5FBE169012202FA00F060
:109AC00021EA0000E06101210020BDE81040DDE74F
:109AD0002079401C2071C0B2032802DA00F0E1F9BD
:109AE00000B1F9E010BD10B50C46208830B9002156
:109AF000FEF734F8208008B9022010BD012010BD07
:109B000038B5DFF80C54AC6A002C04BFEC6A002CAA
:109B100003D11C0003D1252032BD4D2032BD2A6364
:109B20000A46AB620124014600940323002000F0A2
:109B30005AF832BD1CB5DFF8D843A36A002B04BF26
:109B4000E36A002B03D1130003D1252016BD4D205D
:109B500016BDE26201230A4600930146032300205A
:109B600000F041F816BDF8B5DFF8A473BC6A002C0C
:109B700004BFFC6A002C04D1079E340003D12520C9
:109B8000F2BD4D20F2BD140001D12120F2BD089C90
:109B9000069DDFF880C3CCF804200A4601467D62AA
:109BA000BE620094012000F01EF8F2BDDFF86013E1
:109BB000886A002806BFC86A002801207047DFF8BD
:109BC0005803FDF7FFBADFF84803002141628162C4
:109BD000C162DFF84013DFF8442301234A600B70B1
:109BE0000021C1617047F8B506460C4617460128AA
:109BF00003DDFFF7E8FF4E20F2BD0F2F03DBFFF779
:109C0000E2FF5020F2BDC24D012E08D119460020BE
:109C100013F0E1FAD8B1FFF7D6FF2120F2BD3000F2
:109C200015D14FF4FE4068826FF07F007F21E8710C
