:10400000409500209D9D0300013701002D9C030079
:10401000A70A0A010042000004180FAC2069000141
:104020000000000000000000000000000000000090
:1040300000000000C0BD0300000000000000000000
:104040000000000000000000FFFFFFFFFFFFFFFF78
:10405000FFFFFFFF00E00E00000000000000000076
:10406000FFFFFFFFFFFFFFFF8000000000000000D8
:104070000000000000000000000000000000000040
:104080000000000000000000EC7F0120EC7F012018
:1040900040950020BB2A04006E9E0300E08B0020A8
:0C40A000DC36002000E00F0000000000F3
:10420000409500209D9D0300013701002D9C030077
:104210005D0A0300319C0300359C03000000000090
:104220000000000000000000000000005BBE000075
:10423000399C03007FB40000CBBF00005BDC0000B2
:10424000419C0300419C0300419C0300419C0300EE
:10425000419C0300730B030099BB0000E59403002D
:10426000B5940300CB940300852E02006939020047
:10427000419C030093390200419C0300419C0300D0
:10428000419C0300419C0300419C030073F8000023
:10429000419C0300A15B0300419C0300419C03007F
:1042A000419C0300075E0300F95D0300419C03008D
:1042B000419C0300419C0300419C0300CB7603001A
:1042C0008F7603008D7603006D710300C9760300BD
:1042D000917603009576030093760300FD9003002A
:1042E000FD760300419C0300419C03009969000096
:1042F000419C030013570300419C0300332301003A
:10430000419C0300419C0300419C0300419C03002D
:10431000419C0300419C0300419C0300419C03001D
:10432000419C0300419C0300419C0300419C03000D
:10433000419C0300103730B54A4A4A4B4B4C246825
:10434000650702D54FF0FF3030BDC50701D41C42D0
:1043500005D100EA04058D4206D11C4202D06FF05F
:10436000010030BD002030BD521EE7D16FF0020EBB
:10437000500970B50C463D4D6860E868403C400A05
:1043800070BD54F8040BA860161F03E00A104936EC
:104390001F46B108210820FFF7CAFF0100F4D0042E
:1043A00021296070BD0420286000F024F801000479
:1043B000D100212120BDE87040B9E770BD38B52992
:1043C0004CE168090C01F0010541F67131E162012F
:1043D00021264A1160606002202032120B32100741
:1043E00001D100F007F80121211820060DB10021AC
:1043F000E16232BD44400F99E72DE9F84304468954
:104400004616460020164F394822084812394812ED
:104410001430102102E02C19A944761B76B104F562
:104420000050400B4003051BAE4238BF35462A46BC
:1044300049462046FFF795A61003ECD00121092E2E
:10444000101BB8F1000F1CBF00213962BDE8F283D8
:10445000000080969800020001001C000340100438
:10446000130C1004000120034000000080B5002060
:1044700000F0B3F800204649087000F021F9BDE8CB
:10448000014000F0B8B870B504460D4616463046F7
:1044900000F0A8F8002020703046A847BDE8704022
:1044A00000F0A9B801223B493B48ECE701223B4917
:1044B0003B48E8E780B5012000F08CFA394800F06D
:1044C0001DFA3949087001BD80B500F09BFA01283A
:1044D00005D035480078BDE8024000F0FAB901BDCA
:1044E00030B5002400E0641CE3B2304D2D88AB42AF
:1044F0000FD22F4BE4B20C2515FB04F52B441D788D
:10450000854201BF5D888D421D799542EBD11846E9
:1045100030BD002030BD80B519B900F057F900203A
:1045200002BDB1F1004F02D200F05BF9F7E70220C3
:1045300002BDB1F5000F3CBF0902FFF7ECBF02203E
:10454000704770B504461D46FFF7CAFF06000ED03F
:10455000204600F0AFFD50B12946B068FFF7DBFF01
:1045600028B9049870710598B071002070BD0220C0
:1045700070BD1CB5049C0194009313460022FFF704
:10458000E0FF16BD80B500230093FFF7F2FF02BDE8
:10459000ACFF0020272403009CFF0020BB78020012
:1045A000A4FF00209C960020A37E012020A30020D1
:1045B0008496002080B5FFF793FF20B1002180682A
:1045C0000170002002BD022002BD0022F2E7704708
:1045D0000C480D4908600020704700B170207047FA
:1045E0000020704780B500F013F8FF2801D1A32008
:1045F00002BD002002BD00207047704700BF034885
:1046000000787047C6060400E4090120B4010120C7
:1046100080B500F05AFDFF2818BF002002BD002120
:104620000170704700F0D2B8FFF783BF401CC0B2E2
:104630000A2190FBF1F10A2202FB1100C0B270477F
:1046400010B584B0534C2478F4B18DF800008DF887
:1046500001008DF802108DF8031007980190002BCF
:1046600014BF4FF480710021069808B14FF4007018
:1046700011430843ADF8080068464749474A127895
:1046800001EB0211C96888471FBDF8B50124414DEF
:104690002E780A2E12D0424F3C780FC8DFF8F8C0AF
:1046A0000CEB041C8CE80F002046FFF7BFFF3870AE
:1046B000701C287000243B48FFF7B4FF2046F2BD71
:1046C000F0B583B0374C2046FFF7A9FF314D28786D
:1046D00020B3324E304F307807EB0010027A416839
:1046E000007801F017F83D2818D0010016D00021FD
:1046F0000191012100910123317809017A5C0021A7
:10470000FFF79EFF3078FFF791FF30702878401E4A
:1047100028702046BDE8FE40FFF784BFF7BD1CB5FA
:104720000C4600210191009100230022014606E081
:104730001CB5144601900020009000230122E0B235
:10474000FFF77EFF13BD7CB50E46144C124D0021C1
:10475000019100910123217809016A5C01463046EC
:10476000FFF76EFF2078002E1FBF0101695C012951
:1047700004290DD1074D2E78310009D0FFF756FFDF
:104780002070701E28700748BDE87640FFF74ABFCA
:1047900073BD0000597F0120E00D0120577F0120EB
:1047A000587F0120ACFF002038B54478456801F0FF
:1047B00058F80C214C438A498A4B0A59521B9A4299
:1047C00038BF0D51BDE8324001F051B810B5044674
:1047D00001F082F86060042020702046BDE810409F
:1047E000E2E738B504460D4601F076F82D1865600D
:1047F000012020702046BDE83240D5E710B50446C0
:10480000207860B1042806D001F066F86168754B25
:10481000421A9A4201D2002010BD081A10BD4FF072
:10482000FF3010BD70B5044601F056F8054601F0A2
:1048300018F80646606800226FF0004100F007F8A3
:10484000451925603046BDE8704001F010B8F8B554
:1048500005460E46144601F03FF8024600239CB17F
:10486000FF20207010E0087860B1042811D048685B
:104870005C4F111AB9420CD3801AB04202D20646DC
:1048800004B123705B1C083529680029EBD1304640
:10489000F2BD04B123700020F2BD70B5054601F0F1
:1048A0001BF80646504C10E0017869B1042904D089
:1048B00041684C4A711A914206D204230370206069
:1048C0006968884700202060083528680028EBD1F7
:1048D00070BD10B5044600F0FFFF0C225443404A5F
:1048E000404B1159401A984207D214446068FFF7B0
:1048F000D4FF2046BDE8104094E710BD70B50446D3
:104900003A4E3B4A70781378984204D35FF0F60130
:1049100038A001F047F875780C20314A2B46434304
:10492000691C7170D11801264C600E7200E0457050
:1049300054F8080B0028FAD10846FFF773FF284601
:1049400070BD0000F8B50C244FF0FF3160430091BA
:10495000234D05F1080100220A54244B93F800006E
:1049600068B301F013F920B940F22F1121A001F032
:1049700019F800F0B1FF024600261C4BDFF864C0B6
:104980005978F0B2884211D260432958571A6745C6
:1049900015D305F10807385C891A80B979B10098F8
:1049A000814288BF01460091761CE9E7684601F024
:1049B0000FF910B9684600F0B2FF0120F2BD01F016
:1049C00011F90020F2BD0C214843054B0122184487
:1049D00002727047054908707047034800687047C5
:1049E000547701200100008090770120A17E0120F2
:1049F000772404006576656E742D636F6E74726F34
:104A00006C2E6300024800787047014908707047B7
:104A10004A7F012000B5C7B03DA8DFF8101A242254
:104A200001F0F4F82CA8DFF8081A442201F0EEF89F
:104A30001BA8DFF8001A442201F0E8F812A8DFF8FA
:104A4000F819242201F0E2F809A8DFF8941A2422C8
:104A500001F0DCF86846242101F004F92220DFF897
:104A6000841A08700020DFF8801ADFF8802A02EB31
:104A700000123DAB1B5C13702CAB33F8103053802D
:104A80001BAB33F81030938012AB1B5C937109ABF6
:104A90001B5C01EBC30393601DF80030137301230B
:104AA0005373401C2228E0DB47B000BDDFF8340A16
:104AB00000787047DFF8341A01EB0010407B00F0FB
:104AC00001007047412818BF422801D101207047DA
:104AD00000207047432818BF442801D101207047A7
:104AE00000207047F8B5044615461E46079B069AF7
:104AF00000F077FA60B1042100F07BFC070007D0DA
:104B00002046FFF76FFD324629462046B8478FE022
:104B1000F1BD2DE9F04383B004460D4616009846DA
:104B20001EBF0A9F002F5FEA08001ED038780007DA
:104B30004CBF402280220C9B7188307900F051FAE2
:104B400098B1082100F055FC814670B13079FFF72B
:104B500049FD0B980190009743463246294620466E
:104B6000C847BDE8F743FFF746BDBDE8F783F8B592
:104B700000F039F8D0B121000BD1022100F039FC4E
:104B8000040013D02846FFF72DFD31462846A047E4
:104B90000BE0102100F02DFC070007D02846FFF79E
:104BA00021FD224631462846B84741E0F1BDF8B51F
:104BB00000F019F808B98620F2BD00278CB9202131
:104BC00000F017FC04000CD02846FFF70BFD0998F5
:104BD0000090089B079A31462846A0470746FFF7F2
:104BE0000AFD3846F2BD054616461A46069C23467F
:104BF000F7E1F8B50446A5682078FFF7F3FC002636
:104C000012E02868F6B2142111FB06F14718398822
:104C1000207801F032F80121384600F0EAFB01006B
:104C20001CBF20788847761C2979F0B28842E8D3E7
:104C3000BDE8F140FFF7DFBC70B50024DFF8AC58E9
:104C4000DFF8A06808E0FFF735FF20B1E4B205EB1C
:104C50000410FFF7CEFF641C3178E0B28842F2D333
:104C600070BD10B586B0002401948DF80800ADF831
:104C70000A108DF80C30ADF80E200898ADF8100031
:104C800000940023002201A902A800F094F80198E2
:104C900006B010BD2DE9F04782460E4617469846ED
:104CA00097F80290089C20000CBFFD7825464846E6
:104CB000FFF708FF30B16A1ED2B23146504601F00C
:104CC00090FB1FE04846FFF705FF30B1AA1E92B2E5
:104CD0003146504601F09DFB14E0B8F1000F06D1BB
:104CE000200004D0F878844238BF89200BD3F978AB
:104CF0001EB9504601F070FC04E00A4631465046A9
:104D000001F06EFC0020BDE8F08710B5002301E043
:104D1000001D5B1C9CB28C4204D204889442F7D1E3
:104D2000408810BD002010BDDFF8C417401A0C21C8
:104D300090FBF1F082B20021DFF8B807E5E70288C6
:104D4000B2F57C4FA8BF00F002B80846ECE7DFF8E8
:104D5000A817401A142190FBF1F082B20021DFF86D
:104D60009C07D2E710B50C460188638899420DD1A3
:104D7000027B23791A4209D0B1F57C4F04DBFFF79F
:104D8000E6FF2189884201D1012010BD002010BD1D
:104D900010B514460A88E3889A420AD10288B2F50F
:104DA0007C4F04DAFFF7CBFF2189884201D1012033
:104DB00010BD002010BD2DE9FA4F83B00446934684
:104DC0000025002603E0C0884519ADB2761CDFF847
:104DD00014170978F0B2884280F0B880F6B2310139
:104DE000DFF808070844DFF80427515C2278914275
:104DF0008068E8D100903046FFF75CFE0028E5D0DF
:104E00004FF0000A05E0B8F80A004519ADB20AF102
:104E1000010A009909795FFA8AF08842D6D200988F
:104E200000685FFA8AFA142111FB0AF100EB01080D
:104E300021464046FFF796FF0028E4D04FF00009D6
:104E400008E038793021084202D1F8782D18ADB247
:104E500009F10109B8F808101FFA89F08842D6D282
:104E6000D8F804001FFA89F90C2101FB09F1471851
:104E7000224639464046FFF78BFF0028E1D00398D1
:104E800000B107603879800610D5DFF8640600218C
:104E900006E00279920602D5C278891889B20C30F0
:104EA000B842F6D3DFF85806461802E0DFF8540699
:104EB00046190E9D28001DD0DA4639464046FFF7B8
:104EC0003EFF02463B886188207800F0D4FE20B384
:104ED0003879C00630D5002D394640461FD0FFF73F
:104EE0002EFF0346CDF800B03A466188207800F0E6
:104EF000D3FE2CE0BBF1000F08BF002027D0B24644
:104F00005E4639464046FFF71AFF3B8802466188F5
:104F1000207800F0AEFE0028DAD17E2017E0FFF7FF
:104F20000EFFF9780191CDF800B003463A4661884A
:104F3000207800F0AFFE0AE0BDF8100000902B468C
:104F40003A4651463046FFF7A5FE00E0862005B000
:104F5000BDE8F08F2DE9F8450446884616469A4686
:104F6000002503E0397B090616D46D1C2179E8B2CF
:104F700088421ED22068EDB2142111FB05F14718BA
:104F800038884045F1D1310006D0802EEAD0402E3D
:104F9000EBD1397B4906E8D5B0F57C4F07DB3846C5
:104FA000FFF7D5FE504518BF5FEA0A00DDD138464D
:104FB00000E00020BDE8F28580B5134607E080B52B
:104FC0001346402204E080B51346802200E0002210
:104FD00000F007F800B1012002BD80B50023402297
:104FE000F6E770B50C4615461E4600F06EF8FF2831
:104FF00001D1002070BD33462A462146DFF8EC443B
:1050000004EB00108068BDE87040A3E770B50C4663
:1050100015461E4600F05BF8222800DAEBE7002078
:1050200070BD1346402201E00022FAE72DE9F84F57
:105030008046894692469B460026FFF7D2FF08B974
:10504000FF201AE00027DFF8A444DFF8985400E0BE
:105050007F1C2978F8B288420ED2FFB23801205C5A
:10506000404509D05B4652464946FFF7CFFF00282E
:10507000EED0761CF6B2EBE73046BDE8F28F30B5E5
:105080000022DFF8683400E0521CDFF858542D7815
:10509000D4B2AC420CD2D2B214011D5D8542F3D120
:1050A0000D0003D01C44647BE407EDD5104630BDF1
:1050B000FF2030BD80B50021FFF7E1FFFF2801D1BF
:1050C000002002BDBDE80240F4E40121D7E7002141
:1050D000D5E7DFF818140001085C704738B50C46B6
:1050E000FFF7F3FF01460020FF291FBFDFF8FC2375
:1050F00002EB01118968002916D0002203E01B068B
:1051000048BF2846521C0D79D3B2AB420BD20B6874
:10511000D2B2142515FB02F52B441B7B451C002C39
:10512000EDD05B06ECE7C0B232BDF8B50C461546D3
:10513000FFF7CBFF01460022FF291ED0002301E02C
:10514000521C5B1CDFF8A40300EB01108068077998
:10515000DEB2BE4211D20068DBB2142616FB03F6A3
:105160003044067B2F0002D0760602D4E9E73606EB
:10517000E7D5D6B2A642E3D1F2BD0020F2BD0021B0
:1051800009E010B50446012100F005F82046BDE80D
:10519000104001F07CBA2DE9F34F87B001F047FBD6
:1051A0000690D0480078059000249DF81C000190DE
:1051B000DFF8388300E0641CE4B205998C427BDAA6
:1051C0000199FF2907D09DF81C00FFF77EFF0446D8
:1051D000FF2C06D177E008EB0410007B069988428B
:1051E000E9D14FF0000A4FEA041901E00AF1010A7F
:1051F00008EB0900806802795FFA8AF1914257D280
:1052000000685FFA8AFA142111FB0AF1451828890F
:10521000B0F5967FC8BF01F0E5FB002613E0012042
:10522000009000235A46002102A8FFF7C4FD9DF814
:10523000200038B13B46BDF80A2018F8091058463E
:1052400000F087F8761C2989B0B28842CED268680F
:10525000B6B20C21714347183879C006F2D418F859
:1052600009008DF808002888ADF80A003879400652
:105270004CBF802040208DF80C003888ADF80E001F
:1052800039462846FFF75BFDADF81000F87839790C
:10529000490706D5D7F808B00328C0DBDBF800B013
:1052A000BDE70328B4BF07F1080BD7F808B0B6E78D
:1052B0000198FF283FF47FAF9DF8200018B99DF8B2
:1052C0001C0000F003F809B0BDE8F08F3EB50446BD
:1052D00001F0ADFA05460120FFF79AF9012C03D041
:1052E000FF2C08BFA8422BD101237F22242100F0EC
:1052F00028F83020009001AB002200F025F80223AE
:105300007F22252100F01DF83120009001AB012201
:1053100000F01AF808237F22262100F012F8F0206E
:10532000009001AB102200F00FF801237F2227210B
:1053300000F007F82020009001AB112200F004F8E3
:1053400037BD01A801F055BC4FF4A061012001F068
:1053500019BD30B583B005461C462079800744D579
:105360000023CDE9003305B96D46012908BFB2F528
:10537000A06F3AD1208858B900F038F840B92079A8
:10538000400605D401232A467F21242001F05FFC3A
:10539000208801280BD100F029F840B92079400677
:1053A00005D402232A467F21252001F050FC2088C5
:1053B00010280BD100F01AF840B92079400605D426
:1053C00008232A467F21262001F041FC208811284D
:1053D0000BD100F00BF840B92079400605D4012329
:1053E0002A467F21272001F032FC37BD2046FFF7F7
:1053F0009BBC30B501220023047B0C4205D1002068
:1054000030BD144218BF5B1C5200D5B28D42F8D398
:105410000069DBB250F8230030BD3B49401A8003DD
:10542000020C00213948FFF770BC00008CA003007B
:10543000B0A00300F4A0030038A103002DE9FE4F43
:105440000C4600254FF0010A0028607D07D00100BE
:1054500008BF022707D0012804D1012703E008B9BB
:10546000082700E00427A846DDF83490DDF83CB0BA
:10547000254800EB88063088BDF80410884227D103
:10548000F078384224D0B0789DF8381088421FD385
:10549000E07BF178C90607D5D0B13046FFF7BDFFF4
:1054A000218A814201D013E090B9AB4503D0BDF809
:1054B0003000854202DB4FF0000A0EE0B07802991E
:1054C0004855B9F80000401CA9F800006D1CADB2A9
:1054D00008F10108B8F1290FCADB5046BDE8FE8F7C
:1054E0005CA10300497F012000A70300B401012053
:1054F000CCA203001CA70300C0A5030018A703004B
:105500004CFE0020D403012024A20300C8A2030003
:10551000DFF804030178022904BF092202707047F2
:10552000DFF8F80201F0AABE0A2001F084B910B534
:10553000044602F019FA08B902F018FA0B2120FA11
:1055400001F2D20705D4491CCBB21B2BF7DB00209C
:1055500010BDC9B2A142FAD1012010BD2DE9F04120
:10556000804688B00D4600F04DF801F06CF92888AF
:1055700068BB0FF2EC200088ADF81C0002F0F9F9CE
:10558000060008BF02203AD001F05BF9044601F0A2
:1055900058F9074601F055F948214F430694002376
:1055A000A04A059304960393484302931744B7F81F
:1055B000D630104400F1DA01019300914FF6FF73E9
:1055C00007AA4CF60101FF2002F0D6F928804046D8
:1055D000FFF7ADFF944D297818B1080018BF481E99
:1055E00000D10520287001F02FF94046FFF79FFFFA
:1055F00020B12878401E8041C00F00E0012008B093
:10560000BDE8F0810A2001F017B910B50C462088DA
:1056100030B901F016F90146002002F0E2FA2080CC
:10562000012010BD38B500F043F801F00CF9E2B2EA
:10563000E9B2082028E010B50C46FFF7E3FF218807
:1056400021B90146002002F0E5FA2080012010BDBA
:1056500070B500F02DF801F0F6F86F4E30780428A0
:1056600004D1707803F0D4FC002070703078E2B27E
:10567000E9B203F02FFCCAE038B500F019F801F0E8
:10568000E2F8E2B2E9B2062003F024FCBDE83140C2
:1056900001F0DAB838B500F00BF801F0D4F8E2B256
:1056A000E9B2002003F016FC00205B494860EDE7FA
:1056B00004460D460A2001F0BFB880B5FFF7A2FFEF
:1056C00001F0C1F802F044F9BDE8014001F0BCB8B6
:1056D00038B504461546FFF795FF01F0B4F801F020
:1056E000AFF84D48426829462046002A01D090472D
:1056F00001E004F011FA01F0A7F8C7E738B5FFF7A9
:10570000D7FF01F0A0F8E2B2E9B20320BCE7012024
:1057100070470000FEB505460E46144604F0A4FA94
:1057200008B13D20FEBD16F0784F05D0F00E1C38B4
:10573000042801D33520FEBD374F002078603D702E
:10574000042D05D1781C03F039FE022003F060FC23
:10575000FFF7EAFE012D1CBF062D042D01D104F038
:1057600041FC324A2E480A2D3ED8DFE805F01508E4
:105770002933080F0631212B1C002D4B00E02D4B47
:105780000121019302910090032327E02A4A214638
:10579000304604F02DFA25E0284B294A21463046B0
:1057A00004F00CFA1EE0274A00F020F8264A15E023
:1057B000264A01210192029100900323244A0DE020
:1057C0000220387000222349002005F0AAFA09E0DF
:1057D0007020FEBD204A00F009F8204A21463046DC
:1057E00004F01FFAC0B2FEBD0120FEBD00210192EF
:1057F000029100900323704780B50748017809297A
:1058000008BF05F03BFE04F046FB002002BDBDE8EA
:10581000704001F019B80000F0780120DA7801201A
:10582000C5DE0100B879012088A3002037560000AA
:1058300079560000515600000537030095560000C8
:10584000D1560000BB5600005D55000025560000F3
:105850000B56000011550000FD5600000F570000C8
:10586000FFFFEFF31180302181F31188704780F33F
:10587000118870477FB500F011F818B900F015F8DD
:1058800005F02EFE04B070BD7FB500F007F818B922
:1058900000F00BF805F03BFE04B070BD044608466E
:1058A00015461E4602A905F02FBF089909983346F0
:1058B0000091029901902A462046704780B500F079
:1058C0000DF880B202BD80B500F008F8FA21B0FBF7
:1058D000F1F080B202BD000000BF0000E0B505F0AD
:1058E000F5FE6A4605F041FF18B14C2128A000F0F2
:1058F00059F8DDE9000103B000BD000080B506F0F5
:10590000B4F805F0BDFD20B15FF0570120A000F014
:1059100049F8002002BD0120104908707047FEB50B
:1059200004462168002501B91CE000F00CF808B11C
:1059300000F002F8012019E001950095216800238C
:105940003A46301D96E7054E3570054F0023019508
:1059500000933A46301D97E7000000008878012048
:105960001759000000F03EF90020FEBD06F054FA81
:10597000307840B92146301D05F038FE2068852575
:1059800005F0D7FE01E00020307020602846FEBD03
:1059900073797374656D2D74696D65722E63000083
:1059A00042DE704738B504460D4601F01BF806F09C
:1059B0004DFA2946204606F04EFA2B462246694902
:1059C000012006F0AAFA29462046BDE83440E7E760
:1059D0002DE9F0474FF42068634D2E1D63480168A0
:1059E0007165016AB16562490A68F26549683166A4
:1059F000416A7166816AB166C16AF166016B31679D
:105A0000806B706796F8340040074CBFF46BB46B42
:105A1000274606F0B3FA014631650022F26405F12B
:105A20009003DFF850C1DFF850E1544A844224BFAC
:105A3000A2F1200AA24518D3A0693064E469746415
:105A4000746DC4F30804062C13D1704511D360455E
:105A50000FD200884DF64264A0420AD130685860E7
:105A60007068986040F2017803E00027376477643B
:105A700007464348814202D2014600E0091D08461C
:105A8000904203D20C68B4F1CD3FF7D03D49081ADB
:105A9000B0640020002105EB8004E167401C06286B
:105AA000F9D3002003E0C0B205EB8004E167974220
:105AB00023D252F8041D7145F9D36145F7D2CC07C2
:105AC000F5D5002405EB8409D9F87C90894502D0EE
:105AD000641C062CF6D3062CE9D1002814BF401E06
:105AE0000520E0E7B16F002405EB8402D2F8807056
:105AF000D767641C052CF7D319600146481EC9B24C
:105B00000029EFD1706DC0F30800032810D00428DD
:105B100011D0052812D0062813D00C2817D03B2806
:105B200018D119480068800719D540F2025816E0CC
:105B300040F6012813E040F6022810E040F6032862
:105B40000DE0B8F5206F0AD140F6042807E040F6D2
:105B5000052804E018B14D2838BF40F60728404614
:105B6000BDE8F087F8BE03000000002004ED00E06F
:105B700000E300E06E9E03006C44000040950020AE
:105B80009C000020409500201880014AEFF310800F
:105B9000C00706D4EFF3118030288041C043C00F06
:105BA00070470120704770477047704770477047D3
:105BB00070477047704770477047704770470020C4
:105BC000704770470020704770477047002070474B
:105BD00000207047704770477047704770477047A4
:105BE00070477047002080F31188704762B38B07BD
:105BF00008D0521E11F8013B00F8013B00F0248050
:105C00008B07F6D1830740F0208000BF103A07D3FE
:105C100030B4B1E83810103AA0E83810F9D230BCEE
:105C2000530724BFB1E80810A0E8081044BF51F89A
:105C3000043B40F8043BD20724BF31F8022B20F884
:105C4000022B44BF0B7803707047083A07D3B1E8C2
:105C50000810083A40F8043B40F804CBF7D2530749
:105C6000E4E77047002206F097B9704770470120BB
:105C7000704701207047012070477047002070472F
:105C800000207047002070470020704700207047B8
:105C900000207047012070470120704700207047A6
:105CA0000020704700207047002070470020704798
:105CB000B52070477047002070477047704701203B
:105CC000704784207047704770477047704770472F
:105CD00000207047704770477047012070470020D0
:105CE0007047044800680078012808BF0220704708
:105CF00000000000E40901207047002070470121E6
:105D000081814FF6FE71C181012101610021017085
:105D10000120704770470020704700207047002026
:105D200070477047B52070470020704700207047CB
:105D300070470020704770477047704700207047D9
:105D40007047704770470020704770477047704732
:105D50007047704780B5FFF7B8F9FF2805D02228B3
:105D600003D2DFF8AC17085C02BD002002BDF0B51D
:105D7000044600260027059D092D02D3002000219E
:105D8000F0BDB4460FE03F0247EA16675FFA8CFCAD
:105D9000A5EB0C00204410F8010C002110EB0626A6
:105DA0004F410CF1010C5FFA8CF0A842EBD39F42FB
:105DB00006D828BF964203D2901B63EB0701F0BDC3
:105DC000B01A67EB0301F0BD10B50168DFF8442796
:105DD0000B8813804B8853804979117101680979C8
:105DE00051714FF4AA51D18001688979890644BF65
:105DF0004FF4AB51D180DFF820170A7883693BB9A3
:105E0000C088DFF81837188002F0FD00087010BD58
:105E100042F002020A70DFF8084716228169204624
:105E200000F0DEFB0020207010BD80B50020FEF7E2
:105E3000D4FBFF20FFF7A3F9FEF7DDFBFEF736FEEC
:105E400001220146DFF8C80606F0A2F8DFF8C436E2
:105E5000DFF8D0265221DFF8D00606F06FF9FEF702
:105E600029FB06F0EBF906F055FA07F0B6F907F052
:105E7000F3FE07F0F3FEBDE80140FEF7DDBE70471C
:105E800080B501F0C6FF20B908F03CF808B907F06A
:105E900033FCFFF746FFBDE80140FFF752BFF8B5FE
:105EA000044620684079FFF710F92268DFF8805631
:105EB000FF280BD100F05CF8DFF87816022008F01C
:105EC000D0F820684279DFF8701640E0DFF86C16F1
:105ED00001EB0010DFF86866017B237F994208D050
:105EE00000F046F8DFF85C3600F048F8227FA1A108
:105EF0002DE040881188DFF8507688420FD04FF6A9
:105F0000FF73994202D1B0F5004F08DB00F030F882
:105F1000DFF8383600F032F82068028816E0207981
:105F2000022818BF032817D11189507908F0C5F845
:105F300090B9E37C206842882946022008F091F855
:105F4000DFF80C3600F01AF8206802893946022082
:105F500008F081F80020F2BDA07B0028204603D085
:105F6000BDE8F24008F0F6B8BDE8F24008F022B90A
:105F7000E37C52882946022008F073B820684279F1
:105F80003146022008F06DB838B514461A46237819
:105F90005B074CBF052303239A422ED3069D28603E
:105FA00029710498E880AC60AA81207800F0010093
:105FB000A8732078800800F00100E8732078C008FA
:105FC00000F00100687501202875E87B30B10121DF
:105FD000204608F0D0FB297D891C29752882287D60
:105FE000411C2975205CA874481C2875C9B2615CE5
:105FF000E974A989C0B2814201D2002032BD05985E
:10600000A86100F014FC2877012032BD2DE9FE4381
:106010000F460025DFF83C65DFF83C1591EC080BD6
:1060200086EC080BDFF804850B9C029601940A9914
:1060300000913946FFF7A8FF002873D0C8F8006028
:10604000B07CDFF8181508703046FFF7BDFE30460B
:1060500000F01EFB98BBA4BB042F18BF052F03D074
:10606000022F18BF032F01D1012200E00022306867
:10607000F18801914188009103880121F07C00F0B2
:106080004FF908B33068817989061DD44288DFF85A
:10609000D014022007F0DFFFDFF8C8540120287079
:1060A0000121304600F03AF938B10346DFF8B82450
:1060B000DFF8B814022007F0CEFF00202870012579
:1060C00030E0207D80072DD530684079FF2825D12C
:1060D0000027DFF84044FEF7E9FCF9B2814221D203
:1060E000F8B2FEF7F6FF8146F8B2FEF7E3FC98B18E
:1060F000328A306841884846FEF75EFF60B130461C
:10610000FFF762FE306880F8059084F8049030460E
:10611000FFF7C5FE00B101257F1CDCE73046FFF725
:10612000BEFE054608F0A0FA1621DFF8F403FFF7DB
:1061300099FD0020C8F800002846BDE8FE83DFF87E
:1061400030040178491C017001F07F00704778B17C
:10615000DFF820140978012903D1018841F04001BA
:1061600005E0022904D101884FF6BF721140018079
:10617000704700002564000078B1DFF8FC130A784E
:10618000012A04D1DFF8F42312780A7001E0022A10
:1061900003D1017841F01001017070472DE9FE43F1
:1061A000DFF874432178CA0706D5DFF8D41302203C
:1061B00007F051FF002068E0DFF870231268D54D2A
:1061C00072B1126893799B0603D5EB8843F02003E4
:1061D000EB809279520603D5EA8842F04002EA80C9
:1061E000D14E32785207DFF8742312784CBFF27028
:1061F0007270CC4F89070CD54FF049083246398868
:10620000C748FFF755FD8146207800F0FD0020705B
:106210001AE0C2490C884FF6FC718C420ADA4FF042
:106220005508019000963B882A462146002008F038
:10623000F3FB08E04FF04208009033463A882946C5
:10624000204608F0C4FB8146A87980064CBFCD4C9F
:1062500045A408F047FE0294CDF80490CDF80080E4
:10626000C94B0246C949022007F0F5FEC849022081
:1062700007F0F7FE01233A883146022008F04BFE72
:10628000A2A1022007F0E7FE4846BDE8FE830020F9
:1062900084E70A460146A548006801E00021F8E7C6
:1062A00070B504460E4615462079010018BF012836
:1062B0000BD1A0680078C00601D5300005D0A07BC6
:1062C000002804BFE07C0B2801D1002070BD002015
:1062D00094490880607D00280CBF08200020E17BE5
:1062E00011B908F0D6F906E040F0040008F0D1F941
:1062F000208A08F0DDF9A07C08F0CBF90B2008F02B
:10630000C8F9E07C08F0C5F9304608F0C2F920462B
:10631000FFF75AFD2846BDE870403FE70022BFE77F
:1063200070B504461D469B4800788E4B012801D06D
:106330001E7816B10020187070BD82F001020A4369
:1063400001D1002070BD00281EBF04984FF65742AF
:10635000904206D023460A4601462846FFF78EFCA7
:1063600000B1012070BD00000000000038B54FF6FC
:10637000FD735224D288950648BF4924550544BF71
:10638000083CE4B2150544BF083CE4B2120444BF23
:10639000A41EE4B2032810D8DFE800F00204080DC0
:1063A0000B460AE0C8B208F05DFE02E0C8B209F090
:1063B00083F8034601E0641EE4B21846FFF776FC5A
:1063C000201AC0B232BD4254120A084442707047CB
:1063D00008440270110A4170110C8170110EC170D5
:1063E0007047B0B504460D0017460EBF0020287850
:1063F000FF2801D12070B0BD284608F0E1F987429E
:1064000088BF07463A46691C601C00F0E9F827700F
:10641000B0BDF8B504460D00164603D100206070EB
:106420002070F1BD2878FF2802BF6878FF2820700F
:106430000DD0284608F0C9F90746BE42B8BF374616
:106440003A46A91CA01C00F0CBF8277038126070E7
:10645000F1BDF0B5541E002B37D0052A48DA0025CF
:10646000002600230CE0571EFF1AFF000CFA07FC61
:106470004CEA050511F80EC00CFA07F73E435B1C09
:10648000DFB2974209D2DBB2A4EB030E00280CBFA7
:106490004FF0000C10F80EC0E5E7042A0FDAD00028
:1064A000401E0121D2009140494245FA00F2D20734
:1064B00048BF0D4346FA00F2D00748BF0E43AE4234
:1064C0000FDBB54214DA10E05B1CDDB295420FD24F
:1064D000DBB2E51A00280CBF0026465D4D5DB542D3
:1064E00001DA0120F0BDAE42EEDA4FF0FF30F0BD30
:1064F0000020F0BD0021284A01E0891CC9B2535C8C
:106500008342FAD350184078704700005D000000C5
:10651000480A012084090120527F0120A27901202C
:10652000900A0120B6790120900901208C0A0120EF
:1065300090A80300B0A80300CCA80300B401012078
:10654000D4A80300FCA803000CA9030004A90300BD
:1065500014A903006C0A0120E0A903004BA300204A
:106560001CA903004E7F01206CA9030044A903006D
:106570004CA300204F7F0120507F0120517F01203C
:1065800074A90300C0A90300B8A903009CA90300D3
:10659000D0A903004AA3002000AA03002838082835
:1065A0008041C00F704710F0E00011D0802806D065
:1065B000A02806D0C02806D0E02806D007E01C207E
:1065C00070471D2070471E2070471F207047FF2016
:1065D000704700F01F007047002209F01BB9704798
:1065E00081423ABF53189842FFF700BB80189907C1
:1065F00007D0521E24BF13F8011D00F8011DF6D864
:10660000704781071CD1103A07D330B433E93210F8
:10661000103A20E93210F9D230BC1032121F24BFD8
:1066200053F8041D40F8041DF8D838BF121D521E3F
:1066300024BF13F8011D00F8011DF8D8704700BFF2
:10664000083A07D333E90210083A40F804CD40F87D
:10665000041DF7D20832EAE780B509F00BF9BDE86E
:106660000140FFF7E2BB80B5FFF727FBFFF707FC10
:106670000BF060FEBDE8014007F0D0BA80B5FFF72F
:106680001DFB0BF06CFEBDE801400BF094BE7047A3
:106690000BF0D6BE0CF0DBB91CB5059C0194049C34
:1066A000009406F09CF916BD38B504460D46FFF778
:1066B0004CFB29462046BDE834400CF076BBFFF782
:1066C0002CBBFFF736BB70472DE9F0427D4E002012
:1066D00030707D4C206838213825FFF7C3FA3378B5
:1066E0007A49087822686B43D054307821680022B8
:1066F00068430844427030782168684308448270D7
:106700000CF0D2FB327821686A430A4410720CF014
:10671000CBFB327821686A430A4450723178206892
:106720006B4A6943014410786A4AC870337821681B
:1067300017686B43C818476167490A780276307852
:10674000D4F800C0654A074615FB07F312680CEB46
:106750000301CA61624AD2F800902C22574309EB28
:1067600007020CF13407FA500CF0B0FB30782168C6
:1067700015FB00F501F1340251594A680968BDE87A
:10678000F0420CF02ABE80B592B06A46002100208B
:1067900004F09DFA08B1012018E05249524A0A91CA
:1067A0000B925249524A0C910D9210915148524A03
:1067B00052490990524B0F9211910E936A46002153
:1067C000002004F0A9F900B10120C0B213B000BD4F
:1067D00080B5002000F01AF828B1002000F005F87C
:1067E00008B1002002BDFF2002BD364A36481378AA
:1067F000016838204343C818807802281CBF11283C
:10680000432801D101207047002070472D4A2E48AF
:106810001378016838204343C818407801281CBF0A
:106820000228032801D10120704700207047002072
:106830007047002070477047002070470120704764
:10684000704700207047704770470020704780B540
:1068500000F020F820B10020FFF7D8FF00B10120A0
:1068600002BD80B500F016F808B1002002BDFF207F
:1068700002BD10B5044600F00DF848B100F019F85B
:106880004078012818BF022802D10CB9012010BDA0
:10689000002010BD0020A8E780B5FFF7FBFF30B156
:1068A00000F007F84178032901DA002002BDFF203B
:1068B00002BD044A04481378016838204343C818CD
:1068C00070470000D57F0120549F002072A3002054
:1068D00073A300205C9F002067A30020609F00201E
:1068E000589F00209BDD0100B75B000081DE0100A6
:1068F00095D30200B5DC0100F37F010001B901006E
:1069000079E001000021002004F0DDBA7047002882
:1069100018BF0CF0E8BD704703F012B902F0DABFFF
:1069200033B585B005468DF8042007F045FA0446D6
:10693000284607F051FA7CB10028BDF818000FD1A5
:1069400007F056FBFF288DF8000004BF00218DF8EA
:106950000010CDF808D016E0A8B106A8029012E009
:1069600007F046FBFF288DF8000003AA04BF0021B2
:106970008DF800109DF80000BDF8181002928DF8F7
:106980000C00ADF80E10DDE901010A46014628466B
:1069900007F06AF907B030BD0CF0B2BE10B584B094
:1069A00068461A491CC91CC001208DF800000D2042
:1069B0008DF8060003208DF80700082124200CF034
:1069C000D7FF694612480DF086FA4FF4006011496E
:1069D00008600221104A1160104908600220104925
:1069E00008601FBD0A480DF065BAA52803D1002133
:1069F00007480DF04DBA70470A48006800F00100E2
:106A00007047094800680028FBD17047F4CB0300A9
:106A10000080014A84E200E018A0014A04E100E09D
:106A20001C90014A0480014A2480014A2DE9F04F5C
:106A300089B00DF082FA08B1C620CBE0DFF8AC4295
:106A4000DFF8AC62316820680EF021FE05002CD022
:106A500032685168106892691268904704A83168DA
:106A6000896989688847022031688969C9688847C7
:106A7000002506E0006802FB0500096988476D1CD7
:106A8000EDB230688169059A4368B3FBF2F39D4229
:106A9000F0D30020C9688847306880694068804723
:106AA000316820680EF0F3FD05460026DFF84492B9
:106AB000DFF84482002D64D1DFF84002805DF0B140
:106AC000DFF83C0250F8267001AB6A463946206870
:106AD0000EF0E1FF404507D0002852D10098012870
:106AE0004FD0394600F07AF8DFF8180250F8260047
:106AF0000268394620680EF012FF054641E0002783
:106B0000DFF8FC0150F826A0DFF8FC01805D8DF86D
:106B1000080005E0019819F8061088420FD17F1C83
:106B20009DF80800874216DA00F05BF8404506D071
:106B30000028F4D100980028ECD000F04EF819F8A5
:106B40000630DFF8C00150F82620594620680EF0C4
:106B500060FE0500E3D0DFF8B401805D88B19DF8E8
:106B60000870DFF89C0150F826A000E07F1C7F2F02
:106B700007D200F036F8404503D000F02EF80500AB
:106B8000F4D0761C342E95DBDFF884011DB9012189
:106B90000170002515E000210170002DF9D0DFF80B
:106BA00074012D1A08D06D1E08D0AD1E08D02D1FFF
:106BB0000CBFC125C52504E0C22502E0C32500E0C5
:106BC000C4252068007C20B1D321DFF84C01FEF7FA
:106BD000E9FE284609B0BDE8F08F594620680EF05E
:106BE0009FBF07EB0A0B01AB6A46594620680EF0BF
:106BF00052BF70B51546342920DADFF81421127817
:106C000082B1DFF8E8201468DFF8F460DFF8EC20E8
:106C1000525C42B1024656F8211020460EF0C4FEE6
:106C200000B144E070BD7F2D08BF0025024656F834
:106C30002100411920460EF02CFEF1E7FF2903D96F
:106C4000BDE870400FF01BB840F2011133E070B5A1
:106C500015461A46342820DADFF8B4301B787BB1A9
:106C6000224B1C68DFF89860DFF890301B5C43B162
:106C70002A6856F8201020460EF051FE00B116E0AA
:106C800070BD7F2908BF002113462A4656F8200010
:106C9000411820460EF0BDFDF0E7FF2804D9294633
:106CA000BDE870400FF036B84FF49A7103E0BDE8CC
:106CB00070400FF0A6B8DFF86000BDE87040FEF746
:106CC00071BEDFF84C10097801B9704780B5002219
:106CD000DFF82C1051F82010044800680EF098FEE0
:106CE00018B1BDE802400FF08CB801BDF09900204A
:106CF000109A0020040304000BE000F09C02040042
:106D0000CC010400E005040038030400D0020400B4
:106D1000847F012001E000F09CCD03002DE9F047C5
:106D200086B006468A46904699460E9C0F9F109D57
:106D3000029501970094FEF79AFF18B1022803D03C
:106D400002D310E001200EE00CBF01200020002142
:106D5000049103900295019700944B464246514698
:106D6000304600F007F906B0BDE8F08710B586B0F0
:106D700000F01EF80024009416E010B586B000F074
:106D800008F80FE010B586B000F003F80093402338
:106D90000AE00024049401240394089C02940193C3
:106DA000002370470093802300F0E4F806B010BD84
:106DB0000024049401240394099C0294089C0194E7
:106DC000704710B586B001240494002403940A9CF3
:106DD0000294099C0194089C0094E5E71FB5089C67
:106DE0000394079C0294069C0194002400940CE0F8
:106DF0001FB500F001F806E000240394069C0294FD
:106E00000193002370470093402300F06AF904B017
:106E100010BD2DE9F44F84B006468A461D46002475
:106E2000A346D946DDF8388043462A46FEF7D9F80E
:106E300007008DF80060ADF802A08DF80450BDF891
:106E40001000ADF80600ADF8088049D06946384614
:106E5000FDF788FF002843D00025DDF83C80DDF8F1
:106E600040A005E007F015FC641C09F101096D1C48
:106E70003989A8B288422BD27868ADB20C21694317
:106E800046183888B0F57C4F09DA3088ADF806002E
:106E90006A4631463846FDF77BFF0028E7D0308848
:106EA000BDF81020904238BF0BF1010BDDD3A1B229
:106EB0004145DAD207F0FCFBB07807F0EAFB5FEA65
:106EC0000A00D1D03079C0074CBF07200520C9E7A0
:106ED0001FFA8BF111FA84F01FFA89F1884201D16F
:106EE000012000E0002005B0BDE8F08F70B5C6B00D
:106EF00015464B9C052C2FDB04AA0392FF2202921D
:106F000005AA01924A9A00922A4600F0EAF8060081
:106F100024D1FF2205A99DF810000EF083FF060082
:106F20001AD0201FB04217DB284607F0C1FB002013
:106F300007F0AFFB9DF8100007F0ABFB0B4C25886A
:106F4000C5F152018E4207DA324605A9084B58199D
:106F5000FFF746FB7019208046B070BD284607F049
:106F6000A7FB304607F095FBF6E70000B679012055
:106F7000900901202DE9F04F89B081468A46934659
:106F80009846002004908DF81490ADF816A08DF866
:106F90001880ADF81AB0129CADF81C400090002388
:106FA000002204A905A8FDF706FF049808B9862069
:106FB0008AE0159868B99DF850000499897888424C
:106FC00018BF8D20F4D104980079C00758BF8820DD
:106FD0007AD5139D04980079400725D504988068D8
:106FE00040680290049880688068019004988078D6
:106FF000FFF7D4FA06460498C0788DF800000328FD
:107000003346024629461DDA02A8FFF722FA074650
:1070100033469DF80020294601A8FFF71AFA012FF0
:1070200018BF10F1010F1CD0169800284BD14FF655
:10703000FF722946049880780EF0F4FE060012D103
:10704000012041E00298FFF704FA012809D03346F5
:107050009DF8002029460198FFF7FBF910F1010F78
:10706000E2D1872030E00395C0B200F030F8FEF79F
:1070700052FE010028D10395F0B200F028F8FDF788
:1070800096FD010020D10120009000232A46002116
:1070900005A8FDF790FE010016D1049B5246494613
:1070A0002846FEF756F9029500F012F806F034FB78
:1070B0000395F6B2029600F00BF8FEF72BFE00F0F7
:1070C0000AF8FDF754FD002009B0BDE8F08F0290EA
:1070D0009DF850000190009443465A465146484658
:1070E000704710B586B0002401948DF80800ADF803
:1070F0000A108DF80C30ADF80E200898ADF810008D
:1071000000940A9B099A01A902A8FDF754FE010008
:1071100004D10B9911B1019A92780A7006B010BD92
:1071200010B5DFF8EC070068DFF8E017DFF8E427B8
:10713000C860136848615B0800EB43040C6118B138
:1071400000F00AF8652806D2B0210FF2EC70BDE815
:107150001040FEF727BC10BD10B5DFF8B04720691E
:107160006269904202D2C62100F088FA2069626901
:1071700000E0E2684FF6FE71801A084010BDDFF8AB
:107180008C17CA68904203D34969884200F037BB24
:107190000020704780B510B1FFF7F1FF00B101206A
:1071A00002BD30B1DFF86427D168401A4010401C9E
:1071B00080B27047010001D100207047DFF84C1702
:1071C000CA6802EB4000801E70474088C0F30C0084
:1071D000C01C80084000001D80B2704710B50446F6
:1071E000FFF7F3FF04EB4000DFF820174A694FF682
:1071F000FF74904204D20388A34208BF801CF8D0D9
:1072000010BD2DE9F8438046DFF80047E08898B3C9
:10721000B8F8020001042FD4DFF8FC7638680FF2CA
:107220000C710FF214790EF023FE20B940F28D118B
:107230004846FEF7B7FB002504E00EF019FE88B1C2
:107240006D1CADB2E088854204DB40F28F114846E8
:10725000FEF7A8FBA069396800EBC5063068002876
:10726000EBD13160B088401CB0804046FFF7ADFFE5
:10727000F18801EB4000F080BDE8F18370B5044671
:10728000DFF88806007801281AD12088FFF792FFDE
:10729000050027D002262C462046FFF7B2FF608863
:1072A00040F40040608034F81600FFF783FF0400CC
:1072B00002D060880104EFD5761C042E12D2EAE7D2
:1072C00002280FD1FEF7CDFA05462088FFF772FF9E
:1072D00018B10088C0F30E0020802846BDE8704039
:1072E000FEF7C5BA70BD38B504460D46FFF76DFF11
:1072F00061884004020CC1F30D01618021462846DB
:10730000BDE83840FFF76CB910B50C46A04205D275
:1073100041880A0402D4FFF761FFF7E710BD2DE9A9
:10732000F14FDFF8E855002092B0A880FEF799FAF7
:107330006A8801212970ADF800206A6900216980FE
:107340000192FEF794FAE988A869C900FEF78AFC61
:107350006846FFF793FF129848B1002401E0804788
:10736000641C1298E1B250F821000028F7D10024E3
:10737000EF684FF001080DF1080938E024B1641EF0
:10738000E4B259F824A004E03846BA46FFF726FFD5
:107390000746BAF8020000F44041B1F5004F26D18B
:1073A00040F48040AAF802004FF0020B26465FFA34
:1073B0008BF03AF81000FFF7FDFE040010D0608853
:1073C00001040DD440F4004060802046FFF719FF0F
:1073D000102EBDBF49F82640761CF6B24FF00008CB
:1073E0000BF1010B5FFA8BF00428E0D33446019EC9
:1073F000B742C3D3002CC1D1B8F1000FB7D0EF68AA
:10740000BB46B84615E03846FFF7DFFE04467888ED
:1074100001040BD55846FFF7C4FE39880BEB440B2B
:1074200007EB440801F400410843388000F078FA83
:107430000746B742E7D3022028706846FFF71EFFD1
:10744000129848B10026044601E08047761CF0B24D
:1074500054F820000028F8D1EC68274613E04FF0DC
:10746000020937F81900FFF7A5FE20B10088C0F324
:107470000E0027F8190009F10109B9F1040FF0D342
:1074800000F04EFA07464745E9D30AE00446FFF705
:10749000A5FE4146FFF738FFB842F7D3B7422ED1D9
:1074A000544644454AD22046FFF798FE8246002CB7
:1074B000F6D060880104F3D500F05AF8A04204D158
:1074C0006088C0F30D006080EAE704D201462046E0
:1074D000FFF709FFE4E7264607E05046FFF77EFE88
:1074E00041465446FFF710FF8246C24507D2BAF81C
:1074F0000000C0F30E00FFF75DFE8245EDD334B10E
:1075000000F036F801001CBF2046FFF7ECFE2746CE
:107510003046C1E72046FFF758FE06465846FFF7BB
:1075200040FE0746720021465846FFF759F80022F0
:10753000394668460EF0DCFC0BEB460BFEF791F982
:1075400006460021A81C0EF029FDFFF733FE0400BB
:1075500006D1BDF800000021C5F814B0688029707C
:107560003046FEF784F9002CD4D113B0BDE8F08F7B
:107570002088C0F30E001DE680B5FFF71BFEBDE8B6
:10758000024007E610B5040012D0FFF7F5FF18B966
:1075900040F27A4100F072F82046FFF70BFE38B156
:1075A00001880A0402D5D0F80A0010BD083010BDC9
:1075B000002010BD10B5010013D0FFF7FBFD0446FD
:1075C000FFF7E8FD18B940F2944100F057F844B1D4
:1075D0002088010401D5208910BD6088C0F30C000B
:1075E00010BD002010BD2DE9F04100F044F804006A
:1075F0003FD00FF24437FFF7CDFD18B940F2A74155
:1076000000F078F82846FFF7D5FF80462046FFF7C0
:10761000E5FD054646452CD003DB40F2AF4100F0C6
:1076200069F82088010448BF268122D4668020465C
:10763000FFF7CBFD04EB4004FEF713F9DFF8CC12A3
:107640004A692E1BB6B2954204BF4C610026FEF774
:107650000EF9082E06D231462046FF22BDE8F04141
:1076600008F0D4B808212046FEF7B6FFA6F10800BE
:107670006080BDE8F08105460E469BE50FF2B8201C
:10768000FEF790B938B50D46FFF794FD04000AD017
:10769000FFF780FD18B940F2EC41FFF7EFFF04EB74
:1076A0004500808832BD002032BDF8B50D46164633
:1076B000FFF780FD04000FF2802714D0FFF76AFD6A
:1076C00018B940F2F74100F015F83046FFF772FDA7
:1076D000FFF760FD18B94FF49F6100F00BF804EB61
:1076E00045008680F1BD384640F2FB41BDE8F440DC
:1076F000FEF758B93846FEF755B92DE9F84F8846D8
:10770000C11C89084900091D0027DFF80052044602
:107710001FFA81F92E690FF2202AB0F5005F04D319
:1077200040F227515046FEF73DF9FEF79AF883469E
:10773000E869696908B9711A03E05FEA080202D0D2
:10774000411A4E1009E0301A4010064680B220B9A6
:1077500040F24D515046FEF725F9B6B24E4514DBC6
:107760006F6907EB49006861E86928B1B8F1000F5B
:1077700004BF00EB4900E86100207C80B880F880FD
:1077800038802989083464182C815846FEF76FF830
:107790003846BDE8F24F04E570B504460D46114683
:1077A0002846FFF7AAFF06463CB1300005D0FFF798
:1077B000E9FE2A462146FEF713FF304670BD38B574
:1077C0000446FEF74EF805460022214653480EF0C7
:1077D0008FFB2846BDE83240FEF749B838B5FEF7C2
:1077E00040F8044600214D480EF0D8FB05462046DF
:1077F000FEF73DF8284632BD44484188481E804186
:10780000C00F70472DE9FE4F044620888846164673
:107810009B46FFF7CFFC0746FFF7BCFC18B940F2C8
:107820008D61FFF72BFF38883546010403D5388971
:107830002D183D8167E000F077F8019000F070F8B6
:107840008146FEF70EF800968246304E70698145FB
:107850001DD1FFF781FCA84203D25046FEF707F87E
:1078600021E001982D187D80BBF1000F08D0208801
:10787000FFF788FE019B009A41461844FEF7B6F9CF
:1078800000F04EF870615046FDF7F1FF3BE05046C6
:10789000FDF7EDFF00F048F82D180021A8B2FFF722
:1078A0002CFF070001D11A202EE000F03DF805461C
:1078B0002088FFF767FE06463846FFF763FE2A4634
:1078C0003146FEF793F9BBF1000F384609D0FFF7B8
:1078D00059FE00F028F8009A41462844FEF786F940
:1078E00007E0FFF74FFE00F01EF800992844FEF76E
:1078F00073FE20880121FFF7C5FE024601213846AC
:10790000FFF7D3FE27800020BDE8FE8F947701208B
:10791000249F0020289F00208C9F00209677012024
:107920003846FFF75BBC0546208843E6756E636CFE
:1079300061696D65640000006275666665722D6D33
:10794000616E6167656D656E742E63007047704788
:107950000020704770470020704700207047704734
:107960007047002070477047002070470020704724
:1079700070470020704770472DE9FE4F93461F4621
:1079800082460023ADF800307E20884608F440622D
:1079900001920021FFF7B1FE08F440445FEA0009BC
:1079A00000F09280FFF7EEFD7E21FEF715FE4846BF
:1079B000FFF7E8FD02904846FFF7E4FD0025BAF125
:1079C000FF0F18BF48F0030880F800804FEA182125
:1079D0004170C61C019818B137703F0A7770B61C09
:1079E00001985946B0F5006F30460CBF02270827B2
:1079F0003A46FEF7F5FDF6193CB15FEA486004D45B
:107A00000D983070000A7070B61CB4F5004F08BFB6
:107A1000022704D0B4F5404F0CBF082700270C996B
:107A2000119C3A463046FEF7DBFDF019029E861B9C
:107A3000210015D0DFF834130A78871C02704A78C9
:107A400042702046FFF79EFD83462046FFF7B2FDB9
:107A5000C5B22A4659463846FEF7C8F87819AD1C13
:107A60000F9CBAF1FF0F06D00E9900F801AB224629
:107A7000761CFEF7BBF854FA86F050FA85F14846BA
:107A800089B2FFF7B0FD0C21BAF1FF0F129A109CDA
:107A900008BF08215FEAC8604CBF80200020014376
:107AA00000200EF0B5FBADF800004846FFF782FD60
:107AB00005464846FFF766FD01460123EAB26846DF
:107AC000FFF7A0FE00F04BF9BDF80000BDE8FE8F07
:107AD000F6B50022DFF8984287B0059204924FF481
:107AE000B87250430691012522184820414303955E
:107AF0000EAE50184FF6FF7700F1DA0502960197A7
:107B0000009508AA4CF620010120D3E070B588B09A
:107B10000C980D46DFF858428DF81E00482045436A
:107B20008DF81C30069160191B0A0021032407AD53
:107B300000F1DA068DF81D30059104910394029549
:107B400001910096B0F8D6304CF660410220FFF764
:107B500013FF08B070BD4820DFF81422F8B50B46BB
:107B6000434388B04FF6FF771A4402F1D6004388AA
:107B700002F1DA044FF6FE75ADF81C3003888089F7
:107B8000ADF81E00BDF81E60BDF81C00BE420FD04F
:107B9000A84206910DF11E02BABF07AC48F660007C
:107BA0004CF6600000F014F80420FFF7E5FE0DE04D
:107BB000A8420691BABF07AC48F660404CF6604058
:107BC00000F006F8E4320420FFF7D6FE09B0F0BD5D
:107BD00000210591049103910291019101460094C5
:107BE00070474820002210B588B0069141430592A5
:107BF0000492039202925E4A50184FF6FF7300F10E
:107C0000DA04ADF81C300193009407AA4FF4484100
:107C100006201CE00B464822534310B5544888B058
:107C2000C218B2F8D840069100210DF11E004FF69F
:107C3000FF73059104910391029101910090ADF8B9
:107C40001E40ADF81C3007AA4FF400610720FFF773
:107C500093FE08B010BD00004820F0B50D46454326
:107C6000434C89B02C4404F1D4067588B7888DF84C
:107C70001E70280A3F0A8DF81C508DF81D008DF8E3
:107C80001F70367800208DF82130059004908DF813
:107C900020601B0A04F1DA008DF8223006910726D5
:107CA00007AF00900396029701954FF6FF734FF4CC
:107CB0004C410820FFF760FE09B0F0BD48202DE9D7
:107CC000F84116468846424642432949A1B011442C
:107CD0001C4601F1D6025088DA314FF6FE73128845
:107CE00001AF984204D100258DF80450C02503E06F
:107CF00000258DF8045080257D70FA70120A3A71C3
:107D0000984207D108220DF10900FEF769FC0DF138
:107D1000110705E07871000A8DF80A000DF10B07D4
:107D20003E70360A00207E70B870F870ADF8000022
:107D300042460C210EF06CFAADF8000060B13A1D1D
:107D400001A8121A0123D2B201A96846FFF75AFD11
:107D500000F005F8BDF8000022B0BDE8F081BDF8E4
:107D6000000022460121FFF7A0BC000040A3002034
:107D7000B8790120DFF8C419C873704770B5DFF80F
:107D8000C05929783824DFF8BC6930686143014460
:107D90008A78112A04D0B421DFF8AC09FDF702FE7D
:107DA00028783168412214FB00F40819827070BDF4
:107DB00010B50220FEF740FDFEF745FDDFF88039E3
:107DC000DFF880091C78016838204443DFF86C290B
:107DD00008194178042903D1107C401D107405E076
:107DE0004FF47A7102F11800FCF7FBFCBDE810407B
:107DF000FEF72ABD80B5DFF85409FFF73FFADFF838
:107E00005009FFF73BFA0EF033FABDE8014002F0EB
:107E1000F0B8DFF82C29DFF82C0913780168382036
:107E20004343C818807833281CBF4328532801D106
:107E300001207047002070472DE9FF4E0EF032FA06
:107E40000EF07FFC002867D0DFF8F0480020207695
:107E5000DFF8000901790C3001F07CF9207D18B1C0
:107E600002F0C0F8002020750021217300F056F8C0
:107E700010F079FC0EF089FADFF8DC0800274825BD
:107E8000DFF8BC68DFF8D4B800F1E40900F1E20AD9
:107E90009BF80010F8B288423ED2FEF7D4FC30784E
:107EA0004FF6FF7268433AF80010914218BF012163
:107EB00007D100220821484406F03FF8411E8941BD
:107EC000C90F94F8202002F001020A4220D0307835
:107ED000082268433AF80010ADF8081009EB0001D9
:107EE0006846FEF77DFB0A230A2201F087F9DFF8D6
:107EF000540896F800C00168382010FB0CFC0223DF
:107F00000B2201EB0C0000F12C01002010F03EFED2
:107F1000FEF79AFC7F1CBBE7BDE8FF8E10B5DFF8CB
:107F200020080178DFF81C283820136810FB01F0C6
:107F300018444078032818BF04280CD14820414336
:107F4000DFF814285018B0F8E2104FF6FF72914293
:107F500008BF032008D005F04FFF044605F055FF89
:107F6000214607F03CFA022005F074FF10F0BCFE39
:107F700000F096FF10F023FC01F0D8F920B10020AA
:107F8000BDE8104002F018BE10BDF8B5DFF8B077BC
:107F9000DFF8A847E07339783825DFF8A86730683C
:107FA000694301448878032818BF002823D0332868
:107FB00018BF432819D100F01FF83978306815FB35
:107FC00001F542195178032918BF042907D103216B
:107FD000801C4155E07BBDE8F240FEF79FBCE07B92
:107FE000FEF79CFCBDE8F14098E721208870BDE8D1
:107FF000F14011F0E8B8F1BDE37B13223FA103206B
:1080000011F097BA38B5DFF8383701F003FA0021DC
:108010004FF6FE701519A97011F06FFC4FF6FF7046
:1080200011F087FCDFF81447FFF7E6FFE07BBDE8BF
:108030003240FEF773BC00002DE9F8430546DFF837
:10804000380B0AF091FF80462B4618222BA1032003
:10805000DFF8EC6611F06DFA002088F80000317846
:108060003827DFF8E096D9F80000794370240844F7
:108070004178032918BF042924D00024290007D1FE
:10808000416B91F82400E8B181F824409D2017E06D
:10809000FF2D06D04FF47A70454340462946FCF741
:1080A000A0FB3278D9F8001017FB02F701F1340079
:1080B000C15991F8240028B9012281F824209C207C
:1080C000FEF72CFC00F0ECFE2046BDE8F28338B54C
:1080D000FCF783FC0446DFF8A01A0AF046FF0546C9
:1080E000FF2818BFFEF7AFFB00202070FFF7A4FFAA
:1080F000FF2D01D001F03BBA31BD0000424200002B
:1081000038B588B004460D46686916220790297C68
:108110000691E8890590297B0491E87A039095F906
:108120000A10032002912B89CDF800500BA1019376
:10813000234611F0FEF9012001F080FF287B002882
:108140000CBF4FF6FE7011F0CCFB2B4622460146C9
:1081500009B00120BDE83040ABE000004242387079
:1081600057424242574244002DE9F047DFF8D0958C
:1081700099F800C08846DFF8CC653824316814FBD4
:108180000CFC1D4682468B1C13F80C0000284BD1BA
:10819000170049D0042F47DC01F066FD002843D1C9
:1081A000FEF753FB00283FD1FEF751FB08B1042F27
:1081B0003ADB287B032817D14FF6FE71884515D18D
:1081C000012F08BF4FF0000810D0022F2CD111F062
:1081D00088FB4FF6FC71884202DA11F082FB01E065
:1081E00011F06AFC804601E0012F1DD0BAF1000FAA
:1081F0000CD0287B032838460CBF01210021012F19
:1082000018BF002011F024FF010030D1294640465C
:1082100000F03BFF01002AD1FEF713FBFEF7F6FA50
:1082200020B1FEF714FB08B1702020E099F800207F
:10823000306814FB02F4811C085D332818BF5328F2
:1082400003D00020DFF8F4148873384600F0E0FE15
:1082500000214FF6FF7001F0E7F8DFF860170878AB
:1082600020B1FEF7F4FA08B913F059F90020BDE87F
:10827000F08738B50446DFF8C45408222146281D8B
:10828000FEF7AEF9207BDFF8B8340228C8BF002023
:10829000287028789421E9730028DFF8A8041C7856
:1082A0000CBF01213121026838204443101981702C
:1082B00031BD38B51C46FFF757FF010032D1207B96
:1082C0000328204602D1BDE8324062E0FFF7D1FF2B
:1082D000DFF868040021818105F080FE0146400935
:1082E0004FF0010305D1DFF8E80B027803FA01F142
:1082F00008E001F01F0140F0180003FA01F1052227
:1083000041EAC0610620FDF705FA01000AD0DFF856
:108310003044DFF8301425780B6838214D430022B3
:1083200059198A7032BD10B50446DFF81424DFF8FD
:1083300014041378016838204343C8184078032890
:1083400018BF042806D1E079C10744BF94F905009D
:1083500013F079F9207801F017F801F052F822892A
:1083600061890346002013F0EBF9040004D0942047
:10837000FFF70BFE204610BDDFF8C0439420E073EA
:108380000220FEF758FA00F081FD0320207400203F
:1083900010BD10B504460022082105F0CEFD08B13D
:1083A000012010BD11F09DFA00224FF6FF7100F080
:1083B000A7FE217C204600F0CDFE6269E189207C89
:1083C00010F0DBFCDFF87823DFF87803137801681E
:1083D00038204343C8184178012908BF12F060FCD7
:1083E000FFF79CFD002010BD2DE9FC4100F0A6F830
:1083F00004460A44907810B901F036FC08B17020A8
:1084000094E001F024FEDFF834832CB102222146EF
:1084100008F12000FEF7E4F8684600F0CFFF08B14D
:10842000932083E09DF80030142274A1032011F002
:1084300080F800F0E7FE010078D19DF8000000F020
:10844000E7FD327838686A43411C885C012818BF10
:10845000022808D0032818BF042842D1002001F0C8
:1084600029F800283DD000F0E4FE327838686A43ED
:10847000411C885C032814BF042813F060FAFFF73E
:108480004DFD012013F080FA01004FD1307839689A
:1084900068434A1C125C032A18BF042A0ED198F8BC
:1084A00020309C0708D50522DFF8C816012000F00F
:1084B0004FF8010039D039E0032A01D0042A34D121
:1084C000084400F12C0102230B22012010F05EFB76
:1084D00000F02EF891F82C20500726D50EF083F8E6
:1084E00023E031783868132215FB01F50124411986
:1084F0008A70002088F80D0005F070FD400903D156
:1085000005F06CFD84400BE005F068FD450905F0C1
:1085100065FD00F01F0045F01805844044EAC5647D
:10852000052221460820FDF7F5F80020BDE8F68178
:108530003178386815FB01F541197047804E327863
:108540003825804F39686A437047FF2200E00000F9
:108550002DE9FC4116468046794A0D4600F0F0FDB3
:108560003FD08778022F07D0032F3AD15FEA080166
:1085700002D10079810734D4332005F06BFC0DF073
:1085800091FE15F0784F294612BF0522DFF8400909
:1085900002780620FDF7BEF80446A0B9674F38738D
:1085A000012001F04BFD11F0B8F978805FEA080076
:1085B00014BF022001203870381D00F017FF002082
:1085C0007873BE7302E0384605F044FC5FEA0800A9
:1085D0003146284602D0FDF7FFFA03E0FDF7FBFA2B
:1085E00000E070240194009543462C2204A103204E
:1085F00010F09FFF2046BDE8F681000042420000D7
:10860000424244420000000010B5FEF7BBFF00F1FB
:108610001004204613F0BAF94FF6FF5101402046EE
:10862000BDE8104013F0B8B92DE9FF470646444DA8
:1086300011F057F92A788246DFF808913824D9F8E2
:1086400000006243411C885C032818BF042806D13F
:10865000F079C10744BF96F9050012F0F4FF3078B5
:10866000DFF8347C4FF0480800F08EFE708900215E
:1086700000F0DAFE05F073FC78B1BAF1000F03D018
:108680004FF6F8718A4508DB11F016FA2978824610
:1086900018FB01F17A5A9042F6D0504611F02DF9AC
:1086A000308911F046F906208DF8080000F0A9FE87
:1086B0008DF809000020019000902878022302AA7A
:1086C00018FB00F00121385A13F0B1FA064620B920
:1086D0001820FFF75AFC182022E0287818FB00F831
:1086E000304637F80810154F0DF0EFFC38780228A7
:1086F0001CBF3046FFF788FF00F06DF8C8B194202A
:10870000F8730220FEF797F82A78D9F8000000F0F5
:10871000B6FC08D1C82100F031FA032038740020DB
:1087200004B0BDE8F0874FF4167100F027FA00207E
:10873000F4E79420FFF729FC0120F1E7C877012036
:10874000D57F0120549F0020B0950000367F012086
:10875000287F0120EC770120B879012066A3002052
:1087600078B587B00C4616461D4630B920460AF04B
:10877000E8FC03A912F0FCFD03A80C990190072363
:108780008DF8096001208DF80830360A8DF80B103D
:1087900000908DF80A60042302AA0121204613F0FC
:1087A00046FA060014D021460DF08FFC15B930466C
:1087B000FFF72AFF0D9808B930460AE020460AF074
:1087C000EDFD18B1304613F040FC01E000F003F875
:1087D000002008B070BD00220021304614F019B806
:1087E0002DE9F64F85B08A461C4610460DF035FD42
:1087F0000546BDF8180003A9002713F054FA002C11
:108800004FF6FF79B84614BF4FF0010BBB46002668
:10881000BBF1000F07D008B10DF10C08667876089F
:1088200006F0010604E0BDF818000DF08AFC804651
:10883000DFF8F01B0978DFF8782C38201268414304
:10884000531C585C032818BF042800F0B38010980C
:108850006B1C11441D5C8DF808A0680800F0010035
:108860008DF809002806887858BF45F08005022851
:1088700007D15FEA0A0002BF496B91F82400002883
:1088800001D1022730E0404610F09CFFADF8000017
:10889000BDF818000DF06BFC814608B94FF00109D6
:1088A00030000CBF4FF0050A4FF0010ABBF1000F7A
:1088B00004D0201D13F06AF8834601E0BDF800B033
:1088C000BDF818000DF0CFFBCDF80490CDF800A056
:1088D0002B465A46414600F0010012F029FC00F0F8
:1088E0006FF8814608BF01279CB19DF8080018B9B0
:1088F000484600F065F802D1201D13F047F8012129
:1089000001910146009733464A464046FFF728FF4B
:108910000AE0BDF818000DF0A6FB3B464A4641466A
:1089200000F0010012F0FDFE9DF8090020B94FF69D
:10893000FF71404614F0C6FA002F3BD19DF80900A4
:1089400028B14146484614F0E8FA14F04BFB3000D9
:108950001EBF48464FF6FF71884219D00AF0F1FB5E
:10896000FF2815D0DFF8BC7A97F800C0DFF8401B6D
:108970000A68382111FB0CFC02F134034BF6FF713D
:1089800053F80C20526832F810300B4022F81030A7
:1089900084B110F0A6FF0EB1002405E09DF8081088
:1089A000002914BF03240124014643464A462046B9
:1089B00014F028FD07B0BDE8F08F00007CA3002074
:1089C0004FF6FF71884270472DE9FE4F81460F46F2
:1089D000144601A9384613F066F98346002000903A
:1089E00038460DF03AFC8246DFF8445B5FEA090145
:1089F00008D0BBF1000F18BF0DF1040B13F048F9BC
:108A0000064604E038460DF09CFB83462E46384669
:108A10000DF023FC02590DF10100009212F0B6FF97
:108A200080469DF803405FEA090006D008222946E7
:108A3000304615F03DF8002823D1DFF8E869317899
:108A40003825DFF8342B15FB01F112685318D8785C
:108A500018B19AF80100830714D55FEA090011D014
:108A6000901C415C022908BF002C0BD1404610F03D
:108A700044FF0FF078FE9923FFF7BFFA9920FDF726
:108A80004DFF6EE005F06BFA0028DFF8F07A18BFB2
:108A9000002C05D09420FFF778FA0020387660E0AB
:108AA00005F05DFA00285CD0584614F04AF8FF281B
:108AB000DFF8E44718BF5FEA090106D132784820A1
:108AC00059464243A05A14F028FA14F08BFA317830
:108AD00048205A4641434046615ADFF89C4A00F01C
:108AE0000FFBDFF89C0A90F90210090279843078B4
:108AF000216815FB00F08A1C125C012A16BF312A7E
:108B000011224322891C0A540220FDF794FEDFF84B
:108B1000740A016800F032F812F011FF0020387476
:108B2000317815FB01F521684A19D07820B907F191
:108B30001800FBF74BFE12E0B9F1000F06D09AF8CF
:108B40000100820702D5FFF777F908E0481C415D74
:108B5000042904D1052100F011F809203874AD2151
:108B6000F97300F0E3FB10B1002002F025F8BDE836
:108B7000F78F000000F8FF070C77012007F11800BD
:108B8000FBF72FBE2DE9F04F88468DB040460DF023
:108B900064FB83460922002114F0BCFF05464046D1
:108BA0000DF0CFFA814602AB052205A9404615F02B
:108BB00009F88DF8000002282BD09DF8080000234A
:108BC0004519EDB20BEB050A9AF8001005F11002F9
:108BD000D2B28DF801104146012015F00DF80028A1
:108BE00017D09DF801003826DFF83878DFF888497B
:108BF00001280FD0022819D0042800F0CF800628C1
:108C000022D0072800F0958008283AD07C2800F070
:108C10009780E9E040460DF026FA00950023424691
:108C2000002100F00100FFF7DBFDDDE000F0DFF8E0
:108C3000012B02BFDFF844190878002803D12A4627
:108C40004146FFF7C1FECFE048460AF02AFA4FF648
:108C5000FF710546884208D040460DF004FA2A46C6
:108C6000494600F0010012F047FD00F0C0F8022B69
:108C700006D1FDF7E5FD4846FCF7A3FFFDF7E4FD4F
:108C8000B2E00AF1010012F081FEADF800000AF135
:108C9000030012F07BFE05460AF1060012F076FE94
:108CA0004FF6FF7182468842EAD012F048FE3A78C9
:108CB00020687243811C8B5C132B08D100F0B9FA39
:108CC00040460DF03EFA0146284614F026F93A785F
:108CD00020687243811C885C022818BF132821D1A8
:108CE000504610F00AFEBDF8000010F022FE0021F0
:108CF000002000F02FFA4946284600F095FBDFF8E7
:108D00008008C078DFF880180F28B4BF401C0F20FF
:108D1000087000F0C5F8387816FB00F62068811C52
:108D20008A5D132A60D12321801C8155FCF764FDE4
:108D30005AE09DF8001005AA404601F095F953E06D
:108D40009AF80100652802BF0BF10201485D6D2809
:108D50004AD140461335FEF72DFCE9B2814243D299
:108D60000822494603A8FDF73BFC6A46E9B24046A3
:108D700012F016FEC0BBBDF80000A8B3DFF80C4827
:108D800001202070FDF75CFDBDF8001003A8FCF782
:108D90000EFFFDF759FD0020207025E0062200217E
:108DA000584614F0B7FE584412F0F0FD04460FF692
:108DB0001000008800210191ADF80A000091022303
:108DC0000DF10A020121204612F031FF06000BD0FE
:108DD00021460DF07AF940460DF045F90022314662
:108DE00000F0010014F01BFF0DB0BDE8F08F3A78E1
:108DF000206816FB02F6811C8B5D7047F8B50220D7
:108E0000FDF71AFDFDF71FFDDFF870470020207603
:108E10003825DFF81066DFF860770DF092FC40B17E
:108E2000327839686A430A44D07810B9FFF704F8F9
:108E30002BE00DF086FC10B905F091F868B1207CAC
:108E400058B100F023F8207C411E2174FDF7F9FC95
:108E50000146002002F037F817E0327838686A439C
:108E6000811C8B5C132B0DD005F079F850B932784A
:108E7000386815FB02F5811C485D11281CBF43288A
:108E8000412802D1E07BFFF780F84BE2C82104F1D2
:108E90001800FBF7A6BC0020DFF8E0160874704746
:108EA00080B5FDF7F9FCFF2807D000F065FA416BAB
:108EB00091F8240010B1012000E0002012F0C6FB60
:108EC000DFF8B80600214180001DC0E9001101BD96
:108ED0007DA300202DE9F8430F460446DFF89C5699
:108EE0000121DFF89C8684B091466973404601F009
:108EF00084F8FEF72DFD00287CD1012C18BF042C2E
:108F000000D084B9CDF800903B462622AEA10320C4
:108F100010F00FFBFDF794FC4946384600F0EFFDDA
:108F2000FDF792FC66E0DFF8FC442278DFF8486643
:108F3000382730687A43811C885C23280DD104F0DF
:108F40005BFF044604F061FF214606F048FA022068
:108F500004F080FF0DF019FA4CE0B9F1000F49D18F
:108F600021281CBF0428532802D110F02CF941E01D
:108F700004F0F5FFE0B101F05DF828B9287B002886
:108F80000CBFAB20942030E0404601F036F828B109
:108F900040F2CF610FF21860FCF704FD287800283A
:108FA000404602D1FFF7BFF924E0FFF73DFB21E087
:108FB000227830687A43811C8B5C132B1AD100F025
:108FC00019F9BDF8000010F0B4FC00F032F9207877
:108FD00017FB00F73068C1194978032918BF042925
:108FE00006D13321801CC1559620FEF7CEFF01E04B
:108FF000FEF794FF102000210AF0B2F910B913F027
:1090000053FC10B1002001F05AFF05B0BDE8F08319
:10901000F8B50746DFF80C542878DFF85C6538248B
:10902000316860434A1C135CBB4204D0491C0F5496
:109030003846FDF76CFCFEF794FC60B13FB90020A8
:10904000FEF791FCFDF7FDFB0146012212E0012035
:10905000FEF789FC00E027B12A78306800F00FF8AD
:1090600004D1FDF7EEFB0146002203E0FDF7E9FB2A
:10907000012201460020BDE8F84015F00DB814FBB0
:1090800002F4411C0B5D042B704770B592B006468C
:109090000C46FDF7CCFBE17A0546002015F0E1FA1D
:1090A00008B98A202AE094F90A0004F077FF08B191
:1090B0008B2023E000F07BF9E17A00F8D41FA27A3C
:1090C000294642706A46002001F001FE4FF6FE700C
:1090D0008642ADF804606A460CBF4FF6FF702089E7
:1090E000ADF802002946002001F016FD08B102206B
:1090F00004E02089DFF884144880002012B070BD9D
:1091000038B50C46154610F0F8FB10F08DFC2946DA
:10911000204600F089F900F08DFF38B1DFF86004D7
:10912000C0780F28ACBF0F20401C05E0BD4A00F0FE
:1091300007F80CBF00200120DFF84C14087031BD87
:10914000DFF834041378016838204343C8184178A5
:10915000012970477FB504460E4600F04BF8B14D2B
:10916000C4B1DFF82C24002130460FF006FE297828
:109170003820CF4A414310680822435C08448DF8E8
:109180000430417802A88DF805102146FDF728FA31
:1091900016F02AFA2A784820DFF8F8134243881894
:1091A00010F8D41F8DF8031041788DF8021010F0DC
:1091B000B4FBADF8000010F094FBADF8060000F031
:1091C0001BF87FBD00000000424242001FB504466C
:1091D00000F010F81CB100208DF8050007E010F039
:1091E00080FBADF8060010F098FBADF8000000F031
:1091F00003F81FBD684651E010230722694600208E
:109200000FF0C4BC80B58AB0FFF7F4FFBDF80000D2
:1092100004A9ADF818009DF803008DF81B009DF817
:1092200002008DF81A00BDF80600FFF72EFF0BB004
:1092300000BD70B586B0012000F03CF90FF284311A
:10924000D1E900234FF6FF7504002E46CDE9002337
:109250000ED074490A784820DFF838634243B018CA
:10926000B0F8E26000F1E40108226846FDF7B8F9C1
:1092700016F0CBF902A800F011F8002CBDF80E0092
:109280000EBF00226A4635462946FFF739FF16F021
:10929000E0FE06B070BD00009A7A0120014610235E
:1092A000072201200FF072BCF8B504460820FDF734
:1092B000C3FAFDF7C8FA5B4DDFF8DC022B780178C2
:1092C00048204343DFF8CC22D01880F8D41000F0B7
:1092D0002DF810B1002001F06FFC00210020FFF7F5
:1092E00039FF29783826724F38687143014448782D
:1092F000032818BF042802D112F0A6F901E012F0E9
:109300003EF9204601F026FD9B23FEF776FE9B20CA
:10931000FDF704FB29783868002216FB01F630447B
:1093200002854285BDE8F140FDF78EBA002015F0B8
:1093300041B910B504462146002015F092F908B94C
:109340008A2010BD00F018F88078022818BF032882
:1093500001D0702010BD904804700820FDF76BFA12
:1093600000F082FC08B13D2010BD8C4A8C4901F010
:10937000D8FC00B1A12010BD2A4A7F4813780168AB
:1093800038204343C818704710B5044600F06CFC01
:1093900008B13D2010BD00F00AF880F8D440FFF776
:1093A000C5FF10B1002001F007FC002010BD1D4AD0
:1093B0001378482077494343C818704738B584B0BC
:1093C00004466846FFF76AFF9DF8050040B104288F
:1093D00006DC00F09AF89DF80410525D8A4201D034
:1093E000932001E02070002005B030BD1FB5044679
:1093F0006846FFF753FF082202A92046FDF7F0F860
:109400001FBD084B10B500F005F8664910194278E9
:10941000885C10BD58481C78026838204443704767
:1094200000000000D57F01202DE9F84381465E4E03
:10943000307848250C466843564F92B0391807F1EA
:10944000E408A1F8E29040441CB90821FDF7C4F8F3
:1094500003E008222146FDF7C3F8FDF7E8F90146CD
:109460006A46002001F033FC30780822684308EB9C
:10947000000104A8FDF7B4F8ADF80E90FDF7D7F998
:1094800001466A46002001F047FB30784FF6FF7135
:1094900015FB00F57819B0F8E20088421EBF002CD9
:1094A00008EB0501FCF79BFB13B0BDE8F08300005F
:1094B000549F00203EB50446304890F820104FF6E7
:1094C000FF75C80708D500F01AF8BDF80800A842D3
:1094D00002D000F00FF828B100212846FFF7A4FFC2
:1094E00000203EBD24B1BDF808006946FFF79CFF8F
:1094F00001203EBD0822FF21684604F01EBD0A235C
:109500000A22694601200FF041BB274B1A491D78FA
:109510000A6838214D437047234A17481378016879
:1095200038204343C818416B91F82600704700006B
:109530000478012038B5FBF750FA05461B4909F0BD
:1095400014FD0446FF2818BFFDF77DF9164B0020D7
:1095500028701D78084938200A6845435019416B26
:109560000020FF2C81F8260000D000E031BDBDE8CE
:109570003140FDF769B90000549F0020C8770120F1
:10958000EC770120909F0020E57F0120BC7701202F
:1095900000F8FF07B8790120D77F0120396E01005C
:1095A000A992000034B60100D57F01204C7701203C
:1095B0006173736F63696174696F6E2E630000007D
:1095C00004600000FFFFFFFFFFFFFFFF10B5FCF787
:1095D00009FB012300224FF4E131212002F03EFC7F
:1095E00017F0A2F9044617F014FA23460246DFF8F2
:1095F000A014012004F02FFD17F0A0F9044617F085
:109600000CFA23460246DFF88C14012004F023FDF7
:1096100040F2A17417F0FDF9C440E0070CD5DFF863
:109620007844207817F006FA207817F097FA207817
:10963000BDE8104017F050BB10BD38B50022002126
:109640006846FCF738FB08B1009832BD0FF074FF94
:1096500068B10346DFF84424DFF84414012004F025
:10966000FAFCC221DFF83C04FCF79CF904E0DFF8C7
:109670003814022004F0EFFCFAF7AAFF05F0C4F852
:10968000FBF7C8F9FCF7E8FF0221022017F0A0FB66
:1096900005F0C5FB05F0E3FB17F0FAFB41F268208B
:1096A000DFF8081408805220DFF804140880DFF87F
:1096B000041408804FF4004015F0EEFD84A4DFF898
:1096C000F85301E0FAF799FFFDF78CF90FF090FFDE
:1096D000FBF798F9012818BFFCF7C5FFFAF7F4FE6D
:1096E0002121002017F0F4FB0028EBD02A46214668
:1096F0004FF6FF7004F0B5FCE4E710F0F2B804F0A8
:1097000001BC04F06BBC18F0D2BB30B585B002A828
:1097100018F01CFD78B900246946204605F08AFC43
:10972000082202A9684614F0C3F988B1641CE4B2A7
:10973000022CF1DB12E018F001FD05464FF6FF7038
:1097400085420BD00024204605F08CFCA84201D1B4
:10975000204604E0641CE4B2022CF4DBFF2005B0D8
:1097600030BD7FB500F0C0F810F0BBF840B16088A4
:10977000B0F5006F04D1601DFCF7A3FA05461FE0A9
:109780002046FCF7D3FAA0B90025002669463046EA
:1097900005F098FE002804BF9DF8000000280AD1BB
:1097A0002146304605F09AFE50B1752807D18B2529
:1097B00006E08D2504E0761CF6B27F2EE6DB8C25D4
:1097C000FAF719FF284604B070BD10B500F08CF808
:1097D0002046FCF7A9FA28B9204605F0CCFE18B9B6
:1097E000002405E08D2403E075280CBF8B24882419
:1097F000FAF701FF204610BD38B50446FF258DF865
:1098000000506946FCF74CFA10B19DF8000032BDDB
:10981000FDF70FF8A94901EB0411097B814207D13B
:109820002046FBF747F918B12046FBF752FC0546E6
:10983000284632BD70B504460D46FCF733FAF8B938
:109840002046FBF742FC0646FF2E07D0FCF7F1FF4F
:109850009A4901EB06110A7B824201D0002070BDBB
:109860004888288088886880887928710121204666
:10987000FBF734FC687100212046FBF72FFCA87130
:10988000012070BD2DE9F04105460E469046FBF7DC
:109890001CFC07464FF6FF74FF2F14D0FCF7C9FFDE
:1098A000864901EB0711097B81420CD1300008BFCA
:1098B000012202D0012E06D1002241462846FBF7A4
:1098C00034FC00B104882046BDE8F08100000000AF
:1098D00025703E0010B500F007F8204605F062FA4A
:1098E000BDE81040FAF787BE0446FAF779BEF8B52E
:1098F00004460D461646200005D0FDF75BFE0746E0
:10990000C0B2864201D20020F2BD00200090FBB21E
:1099100000222146284618F04DFCF8B2F2BD70B581
:1099200098B004460D461646FAF75AFE522203A98D
:109930003046FFF7DCFF060011D00DF1090018F0EA
:10994000F6FB02A818F0F5FB03A8019000969DF91C
:1099500008309DF809202946204605F07CF9FAF7E1
:109960004AFE18B070BD1FB50B4600246A4601467A
:10997000184618F06CFD00203DF800104C40801C8B
:109980001028F9DBA0B200B90124A0B204B010BDC8
:109990002DE9F04198B005460E4690461C46FAF770
:1099A0001FFE522203A92046FFF7A1FF074690B1F0
:1099B0001E9C2146284618F00CFE394603A8FFF7E6
:1099C000D2FF029003A801900097234642463146F9
:1099D000284605F08BF9FAF70EFE18B0BDE8F081C5
:1099E0002DE9F04383B004468946164698460A9D01
:1099F000002241462846FDF7CFFE070008BF182089
:109A00003CD041462846FFF7AEFF0B9908800C98E2
:109A10000D9A062C31D8DFE804F00404040D162852
:109A20001F003B4632464946204603B0BDE8F0439E
:109A300017F0EDBE3B461E221E21304603B0BDE8A6
:109A4000F04317F0DDBFF17A019200903B460A46E1
:109A5000304617F09FFF11E03B461E223146484634
:109A600003B0BDE8F04317F039BF0197F17A0091D8
:109A70003346494617F052FF00E00220BDE8FE835E
:109A800008220F49FCF7ACBDFFF798BC7F20704758
:109A9000D49F0300EC9F030048A3002020A00300F4
:109AA0000CA0030028A0030038A003002EA3002070
:109AB00032A3002034A3002044A00300B4010120FD
:109AC0000478012010B582B0FFF70EFF0DF1010000
:109AD00018F02DFB684618F02CFB00F00AF818F07F
:109AE00066FE18B900F005F8FAF722FEFAF783FDD2
:109AF00013BD9DF900209DF801102046704738B530
:109B000000F01AF82946204618F01BFE18B929461D
:109B10002046FAF718FE0BE038B500F00DF829469C
:109B2000204618F077FE18B929462046FAF7F7FDC7
:109B3000BDE83140FAF75FBD04460D46FAF750BD67
:109B4000FCF7B2BDFCF79ABD0A464FF6FF718A4298
:109B500004D00FF27D31002001F0C9BB21207047F5
:109B600010B5DFF868446078012819D171B9002078
:109B700014F053FDE169012202FA00F021EA00002D
:109B8000E06101210020BDE81040DDE72079401CA4
:109B90002071C0B2032802DA00F0E1F900B1F9E067
:109BA00010BD10B50C46208830B90021FEF732F800
:109BB000208008B9022010BD012010BD38B5DFF8A3
:109BC0000C54AC6A002C04BFEC6A002C03D11C00BE
:109BD00003D1252032BD4D2032BD2A630A46AB6237
:109BE0000124014600940323002000F05AF832BDFE
:109BF0001CB5DFF8D843A36A002B04BFE36A002B2F
:109C000003D1130003D1252016BD4D2016BDE262FD
:109C100001230A46009301460323002000F041F887
:109C200016BDF8B5DFF8A473BC6A002C04BFFC6A4B
